:020000040800F2
:1000000000000220ED0E03085DDD02085FDD02083E
:1000100061DD020863DD020865DD02080000000002
:1000200000000000000000000000000067DD020882
:1000300069DD0208000000006BDD02086DDD0208CA
:10004000610F0308610F0308610F0308610F0308C4
:10005000610F0308610F0308610F0308610F0308B4
:10006000610F0308610F0308610F0308610F0308A4
:10007000610F0308610F0308610F0308610F030894
:10008000610F0308610F0308610F0308610F030884
:10009000610F0308610F0308610F0308610F030874
:1000A000610F0308610F0308610F0308610F030864
:1000B000610F0308610F0308610F0308610F030854
:1000C000610F0308610F0308610F0308610F030844
:1000D000610F0308610F0308610F0308610F030834
:1000E000610F0308610F0308610F0308610F030824
:1000F000610F0308610F0308610F0308610F030814
:10010000610F03087DDD0208610F0308610F03081A
:10011000610F0308610F0308610F0308610F0308F3
:100120008DDD0208610F0308610F0308610F0308EA
:10013000610F0308610F0308610F0308610F0308D3
:10014000610F0308610F0308610F03089DDD0208BA
:10015000610F0308610F0308610F0308610F0308B3
:10016000610F0308610F0308610F0308610F0308A3
:10017000610F0308610F0308610F0308000000000E
:08018000ADDD0208610F030868
:1001880010F8012B11F8013B012A28BF9A42F7D039
:10019800D01A7047034613F8012B002AFBD1181A0E
:1001A8000138704753B94AB9002908BF00281CBF55
:1001B8004FF0FF314FF0FF3000F00CB8ADF1080CF4
:1001C8006DE904CE30F02EFFDDF804E0DDE902230E
:1001D80004B07047704700BF0348044B834202D005
:1001E800034B03B118477047645100206451002045
:1001F8000000000005480649091A891001EBD17171
:10020800491002D0034B03B11847704764510020CE
:10021800645100200000000010B5064C237843B953
:10022800FFF7DAFF044B13B10448AFF30080012352
:10023800237010BD6451002000000000FC12030868
:1002480008B5054B1BB105490548AFF30080BDE86B
:100258000840FFF7CFBF00BF000000006851002032
:10026800FC12030870B58CB0002407940894099414
:100278000A940B9401942A4B1A6B42F004021A63F5
:100288001A6B02F004020192019A02941A6B42F06E
:1002980080021A631A6B02F080020292029A039497
:1002A8001A6B42F001021A631A6B02F00102039200
:1002B800039A04941A6B42F002021A631A6B02F052
:1002C80002020492049A05941A6B42F010021A630F
:1002D8001A6B02F010020592059A06941A6B42F006
:1002E80008021A631B6B03F008030693069B0D4D67
:1002F8002246022128462FF061FA01260796089423
:10030800099407A908482FF075F90223079308965E
:1003180009940A9407A928462FF06CF90CB070BD0F
:1003280000380240000402400008024010B588B0BE
:100338000022079212484FF02043036003F58273AE
:1003480043608260C2600261102141618261C261C2
:10035800026242624FF480538362C2620263426364
:10036800826342640523019302930F240394049348
:1003780005911123069301A92FF0B0FD08B010BD17
:100388003859002008B50348034B03602FF0CFFD10
:1003980008BD00BF0C5A00200008065008B50B48DD
:1003A8000B4B03604FF48273436000238360C36088
:1003B800036143614FF400728261C3610362436267
:1003C80083620A23C36230F09BF808BD1C5A0020E0
:1003D8000030014008B50B480B4B03604FF48273A3
:1003E800436000238360C360036143614FF400727C
:1003F8008261C3610362436283620A23C36230F08D
:100408007FF808BD805800200038004030B595B00E
:100418003022002108A830F0E1FD00240394049460
:1004280005940694079401941C4B1A6C42F0805270
:100438001A641B6C03F080530193019B0294184BC0
:100448001A6842F480421A601B6803F480430293DE
:10045800029B012308934FF48033099302250E95DC
:100468004FF480030F9304231093A823119312953C
:100478000723139308A82EF0A7FD0F2303930495D1
:1004880005944FF4A05306934FF480530793052126
:1004980003A82EF0F9FF15B030BD00BF00380240A8
:1004A8000070004008B52FF06BFCFFF7AFFFFFF7B7
:1004B800D9FEFFF73BFFFFF765FFFFF76FFFFFF779
:1004C80089FF1BF0F5FA00F0BBF964202FF084FCDB
:1004D80001F03EFC21F0C2F905202FF07DFCF9E780
:1004E80070470000014B1960704700BFDC510020C5
:1004F800FEE70000014B1880704700BFFEFF076051
:1005080008B52FF069FC08BD014B5880704700BF43
:10051800FEFF0760F8B507460D4616461C462A201A
:10052800FFF7E8FF380AFFF7EFFF3846FFF7ECFF61
:10053800300AFFF7E9FF3046FFF7E6FF2B20FFF709
:10054800D9FF280AFFF7E0FF2846FFF7DDFF200A5A
:10055800FFF7DAFF2046FFF7D7FF2C20FFF7CAFF87
:10056800F8BD0000F8B5194B1A6801321A601A680C
:10057800174B1B689A4203DD164820F0C1FFF8BDEF
:100588000646154F3B68154D2A689B1A0133144CD3
:10059800226802EB4303236028680C4B19683A6809
:1005A8001B6801339BB292B289B280B2FFF7B2FFE7
:1005B8003B682A689B1A01330A4A12682168304648
:1005C8002FF0E8F90028DAD0FEE700BFF05100204C
:1005D800EC510020A8510020E4510020E0510020F7
:1005E8008051002004500020F8B5B1F9005025EAE8
:1005F800E575B1F9023023EAE373B1F9040040F27A
:100608003F14A042A8BF2046B1F90610EF29A8BFA1
:10061800EF21124C2560124D2B60124D28601248B4
:100628000160124E3360124F3A60206831682A68C0
:10063800336801339BB292B289B280B2FFF76AFF86
:100648002B6822689B1A01330A4A126839680A48DB
:100658002FF0A0F900B1FEE7F8BD00BFE05100207F
:10066800E8510020E4510020EC510020F051002016
:100678008051002004500020D858002010B5094CA3
:100688000022022120462FF099F80120FFF732FFBF
:100698004FF4FA70FFF734FF0122022120462FF0B1
:1006A8008DF810BD0004024010B504463620FFF74F
:1006B80021FF0120FFF724FF032C0DD8DFE804F009
:1006C800020D18234820FFF71FFF144BF0221A8051
:1006D800134B4FF4A0721A8010BD2820FFF714FFA7
:1006E8000E4B4FF4A0721A800D4BF0221A80F3E7DC
:1006F8008820FFF709FF094BF0221A80084B4FF4B6
:10070800A0721A80E8E7E820FFF7FEFE034B4FF4DB
:10071800A0721A80024BF0221A80DDE702500020F6
:100728000050002010B582B0002301931F4A116BBE
:1007380041F480011163126B02F480020192019A64
:100748001B481C4A02604360802282604FF400729A
:10075800C2604FF4806202614FF4006242614FF45C
:1007680000528261C3614FF4403202620422426245
:100778008362C36203632FF0A7F8A0B90C4C0E4A3A
:10078800002120462FF03CFA0C4A042120462FF085
:1007980037FA0022114638202FF074FA38202FF04B
:1007A800A5FA02B010BDFFF79BFEE7E7003802404C
:1007B800D8580020106402406D050008F9040008AC
:1007C80038B50A4D4FF4205300220949284620F035
:1007D80027FE084C204620F0F5FD074BE360074B49
:1007E800A3616560204620F0C1FE38BD8451002019
:1007F80000000020A8510020F1050008ED040008C1
:1008080070B504460B4D2A880B4E3388013B013ADC
:100818009BB292B200210846FFF77CFE33882988F4
:1008280001FB03F100238B4203D2044A54800133B5
:10083800F9E770BD0250002000500020FEFF07605D
:1008480008B5FFF76FFFFFF719FFCB20FFF752FE40
:100858003920FFF759FE2C20FFF756FE0020FFF73E
:1008680053FE3420FFF750FE0220FFF74DFECF2045
:10087800FFF740FE0020FFF747FEC120FFF744FEC8
:100888003020FFF741FEE820FFF734FE8520FFF710
:100898003BFE0020FFF738FE7820FFF735FEEA2000
:1008A800FFF728FE0020FFF72FFE0020FFF72CFEA1
:1008B800ED20FFF71FFE6420FFF726FE0320FFF759
:1008C80023FE1220FFF720FE8120FFF71DFEF720F0
:1008D800FFF710FE2020FFF717FEC020FFF70AFEE3
:1008E8002320FFF711FEC120FFF704FE1020FFF7B9
:1008F8000BFEC520FFF7FEFD3E20FFF705FE282072
:10090800FFF702FEC720FFF7F5FD8620FFF7FCFD85
:100918003620FFF7EFFD4820FFF7F6FD3A20FFF7F6
:10092800E9FD5520FFF7F0FDB120FFF7E3FD0020BA
:10093800FFF7EAFD1820FFF7E7FDB620FFF7DAFD1D
:100948000820FFF7E1FD8220FFF7DEFD2720FFF7F3
:10095800DBFDF220FFF7CEFD0020FFF7D5FD2620B6
:10096800FFF7C8FD0120FFF7CFFDE020FFF7C2FD2C
:100978000F20FFF7C9FD3120FFF7C6FD2B20FFF739
:10098800C3FD0C20FFF7C0FD0E20FFF7BDFD0820BA
:10099800FFF7BAFD4E20FFF7B7FDF120FFF7B4FDD2
:1009A8003720FFF7B1FD0720FFF7AEFD1020FFF756
:1009B800ABFD0320FFF7A8FD0E20FFF7A5FD0920DA
:1009C800FFF7A2FD0020FFF79FFDE120FFF792FD52
:1009D8000020FFF799FD0E20FFF796FD1420FFF782
:1009E80093FD0320FFF790FD1120FFF78DFD0720F1
:1009F800FFF78AFD3120FFF787FDC120FFF784FD4F
:100A08004820FFF781FD0820FFF77EFD0F20FFF744
:100A18007BFD0C20FFF778FD3120FFF775FD3620B0
:100A2800FFF772FD0F20FFF76FFD1120FFF762FD42
:100A38007820FFF765FD2920FFF75CFD0320FFF70D
:100A480033FE0020FFF7DCFEFFF7BAFE4FF4A07379
:100A5800F02200210846FFF75DFD08BD102900D0EF
:100A680070472DE9F04385B008F0F0FD01281FD04C
:100A78004FF0020923F04EF9044623F051F90546D8
:100A880023F030F9064623F033F9074623F036F908
:100A9800804623F039F90290CDF804800097334658
:100AA8004A462946204606F0C5F905B0BDE8F08358
:100AB8004FF00109DEE7000038B50446072902D0E7
:100AC8000E2935D038BD1C4B1B689BB10021204630
:100AD80019F0A8FC194B1D68204619F03FF90122AE
:100AE8000146284614F084FA2146134B186810F082
:100AF800BBFAE7E7124B1D6820F0A0FC20F0B9FC18
:100B080000EBD07040F34F0128461CF031FB20F079
:100B180095FC20F002FC002110F0FAF9064B186051
:100B280008491BF0FDF806F0F5F906F0BAFACDE72A
:100B3800012119F077FCC5E7245300203053002029
:100B48003C530020510B000810B50C460D4B18689B
:100B580010F0C0FA142C00D010BD0A4B1B68002BF3
:100B6800FAD0094B1C6820F069FC20F082FC014691
:100B780020461CF0FDFA034C20681DF0D7FC00232A
:100B88002360E9E7245300203C530020102900D0BB
:100B9800704770B582B0044608F0ACFD012813D048
:100BA800022811D0204616F095FA124D0346124A33
:100BB8001021284606F02AFF2B467F2202212046D4
:100BC8001DF021F902B070BD204608F05BFD064615
:100BD800204616F07FFA094D00903346084A202136
:100BE800284606F013FF2B467F22012120461DF0E0
:100BF8000AF9E7E7F451002084150308045200209D
:100C0800881503082DE9F04182B0064614F0AAF8C9
:100C180008210DF0E3F9002020F04DFC002840F0F9
:100C280073814FF0010801224146304614F048F91B
:100C3800074620F003FC20F070FB002113F032F986
:100C48000446CD4913F0FCF9204613F0EDFA802252
:100C5800012109F03FFB002130460DF03DF9044623
:100C680009210DF0BBF9C54A002120461DF060F8A6
:100C7800012120461BF014F8C14B7F220021204699
:100C88001DF0C1F8012500952B460022114620468B
:100C98000DF0C4F9394620461CF052FA00212046CE
:100CA80008F094FD074600952B46002211460DF0EA
:100CB800B5F92A46414620461CF034FC0146384620
:100CC8001CF03EFA0021384611F066FCAD4D29466D
:100CD80011F0C4FA3946204608F078FD074608F0B6
:100CE80043FE0021384611F057FC294611F0B6FAA8
:100CF8000021204616F070FD002120460CF0B0FDC2
:100D080020461CF0A1FB07460021204616F042F9B8
:100D180005460022282108F069FB9B4928461AF05D
:100D2800FFFF394628461CF0D3FB002020F0B5FB16
:100D380000EB800000EB8000EF2800F3E88001233F
:100D48001522002128461DF016F822F0CBFF034695
:100D58007E22022128461DF056F8002020F09DFB37
:100D680000EB800000EB8000EF2800F3E0804FF0FC
:100D7800FF334FF41D72022128461CF0FCFF0023AC
:100D88007C22022128461DF026F8FF234FF41F720B
:100D9800022128461DF01FF84FF49673B022022155
:100DA80028461CF0E8FF7423B622022128461CF0CE
:100DB800E2FF7C23B722022128461CF0DCFF2946EB
:100DC800204616F0E7F80546022108F01DFC00222F
:100DD8004621284608F00AFB00221E21284608F072
:100DE800E1FB002020F059FB00EB800000EB8000C5
:100DF800EF2800F3AC804FF0FF337422012128461E
:100E08001CF0B9FF22F06EFF03467E22012128461E
:100E18001CF0F9FFFF237C22012128461CF0DBFF90
:100E2800594928461AF07CFF0022102128461AF05A
:100E3800DFFF28461BF056F9B84200F39880214698
:100E480030460DF049F80646002400942346224611
:100E580021460DF0E3F84D4B7F22214630461CF029
:100E6800D2FF2146304619F0D5FB054600942346AB
:100E7800022211460DF0D2F8DFF8288141462846B3
:100E880019F0FEFF4249284618F0CEFE01212846F7
:100E980019F032FB0121284619F0C4FA3D4F3946B2
:100EA80028461AF03DFF2946304619F0B3FB05469F
:100EB80001211AF0B3F83849284618F0B5FE214642
:100EC800304619F0A7FB0546009423460222114636
:100ED8000DF0A4F84146284619F0D2FF2F492846BC
:100EE80018F0A2FE0121284619F09CFA3946284636
:100EF8001AF016FF0221009123460A4628460DF0F3
:100F08008DF802B0BDE8F0814FF002088BE60020B2
:100F180020F0C3FA00EB800000EB80005030204A3C
:100F280082FB0032C317C3EBA2131BB208E70020F1
:100F380020F0B3FA00EB800000EB80005030184A34
:100F480082FB0032C317A3EBA2131BB211E70020E8
:100F580020F0A3FA00EB800000EB80005030104A2C
:100F680082FB0032C317A3EBA2131BB245E7394635
:100F780028461CF0E5F862E70850002028530020B6
:100F8800D0130308D8130308950B0008E0130308CF
:100F9800EC130308C10A0008FC130308081403082B
:100FA80067666666901E0308F0B583B0C568134C83
:100FB8002768284608F08AFB114E00903B46114AE4
:100FC8004021304606F022FD33467F220021284684
:100FD8001CF019FF0022B4F90010284608F006FAA0
:100FE800236801332360284608F070FB2368984281
:100FF80001D20022226003B0F0BD00BF40530020A0
:1010080024520020C013030870B582B004460E466F
:1010180089B207F03FFA0C4D33460C4A4021284666
:1010280006F0F4FC002120461AF0AEFF06462946D9
:1010380011F014F9002200921346214630461BF0A5
:101048000BFB02B070BD00BF64520020841503087A
:1010580070B582B004460E4611F0C8FD0B4D3346FC
:101068000B4A4021284606F0D1FC002120461AF000
:101078008BFF0646294611F0F1F80022009213462C
:10108800214630461BF0E8FA02B070BDA452002099
:101098008415030870B582B005460C460A4600213F
:1010A8000EF034FF0D4E23460D4A4021304606F01F
:1010B800ADFC002128461AF067FF0446314611F0BE
:1010C800CDF820461AF0F4FF0090002302222946AA
:1010D80020461BF0C1FA02B070BD00BFE4520020E8
:1010E800841503082DE9F04F97B00446039013F0D8
:1010F80039FE08210CF072FF002020F0DCF90746C9
:1011080001221146204613F0F4FE0546022F00F294
:10111800E28201210122039C204613F0D1FE0646FB
:10112800002120460BF09CFE0446EF4A00211CF0EB
:10113800FFFD002F00F0D182012120461AF0B0FDFA
:10114800EA4B7F22002120461CF05DFE31462046F6
:101158001CF0BEF9294620461CF0CFF900220321D5
:1011680020460BF0D1FF082120460CF0D7F90121C9
:1011780020460CF0B7F9002F40F0B9824FF016085E
:101188004FF0000168F304014FF0280B6BF34A118C
:101198006FF3CF2120460BF067FF06464FF00001A2
:1011A80068F304014FF0340A6AF34A114FF0080952
:1011B80069F3CF2120460BF057FF05460A22314636
:1011C80020460CF043FA5A22314620460CF03EFAEB
:1011D8001E22314620460CF039FA3C223146204680
:1011E8000CF034FA0A22314620460CF02FFA5A2223
:1011F800314620460CF02AFA1E22314620460CF0D1
:1012080025FA3C22314620460CF020FA0A223146C3
:1012180020460CF01BFA5A22314620460CF016FAEA
:101228002022294620460CF011FA4222294620465F
:101238000CF00CFA0522294620460CF007FA2F225A
:10124800294620460CF002FA2022294620460CF0B6
:10125800FDF92022294620460CF0F8F942222946B9
:1012680020460CF0F3F90522294620460CF0EEF949
:101278002F22294620460CF0E9F942222946204629
:101288000CF0E4F90522294620460CF0DFF92F225C
:10129800294620460CF0DAF9214603980BF0E0FDC8
:1012A800044602210CF01EF9914B7F2200212046B2
:1012B8001CF0A9FD4FF0000168F304016BF34A111B
:1012C8006FF3CF2120460BF0CFFE06464FF000010A
:1012D80068F304016AF34A1169F3CF2120460BF041
:1012E800C3FE05460A22314620460CF0AFF95A22C1
:1012F800314620460CF0AAF91E22314620460CF051
:10130800A5F93C22314620460CF0A0F90A223146C4
:1013180020460CF09BF95A22314620460CF096F9EB
:101328001E22314620460CF091F93C2231462046D7
:101338000CF08CF90A22314620460CF087F95A2223
:10134800314620460CF082F92022294620460CF02E
:101358007DF94222294620460CF078F905222946D3
:1013680020460CF073F92F22294620460CF06EF91E
:101378002022294620460CF069F9202229462046D9
:101388000CF064F94222294620460CF05FF9052248
:10139800294620460CF05AF92F22294620460CF0FF
:1013A80055F94222294620460CF050F905222946D3
:1013B80020460CF04BF92F22294620460CF046F91E
:1013C800002F00F0C381012F40F2C78101220321C1
:1013D800039813F075FD8146039C204613F036FDF3
:1013E8004845A8BF484605B200210394204611F09D
:1013F8008FFB064601211AF053FC3221304611F0CA
:10140800F5FB2A46294630461BF036FEDFF8D88021
:101418004246002130461CF08BFC364B7F220021CF
:1014280030461CF0F0FC0021304611F0B5F8834638
:10143800002400942346224631461BF00DF922F081
:1014480063FC034648F28E02214658461CF0DBFC3A
:1014580005A822F079F90596274B06930B940C946E
:1014680064230D934FF47A630E934FF47A731193B8
:101478004FF6FF7AADF84CA005A822F0B3F9214643
:1014880003980EF07FFE064601211AF009FC2A4651
:10149800294630461BF0F0FD4246214630461CF0F6
:1014A80047FC164B7F22214630461CF0ACFC5946BF
:1014B800304611F071F88346114B83FB0923A3EBE7
:1014C800E9790FFA89F300932346224631461BF047
:1014D800C3F805960B4B069305A822F083F921461D
:1014E800DDF80C9010E000BF2853002040160308D8
:1014F8008016030890160308591000089C16030864
:10150800565555559D100008484607F017F90646E8
:1015180001211AF0C5FB4FF4B4722146304607F09A
:101528009FF84FF48771304607F0CAF822462146E3
:10153800304607F067F82A46294630461BF09CFDDE
:101548004246214630461CF0F3FBA84B7F22214639
:1015580030461CF058FC5946304611F01DF80094EE
:101568002346224631461BF077F80596A04B069392
:101578000B940C944FF4B4730D93ADF84CA005A8DC
:1015880022F030F9214648460CF0A6FC0646012315
:101598000093224621460CF041FD42462146304642
:1015A8001CF0C6FB934B7F22214630461CF02BFCD7
:1015B800002F00F0D980012F40F2E08002220321A1
:1015C800039813F07DFC014630461BF0B9FD00215D
:1015D800304607F03DFF054630461BF035FF014613
:1015E80028461BF0ADFD22F07DFB03467E2200213C
:1015F80028461CF008FC0D237522002128461CF003
:10160800BAFB03237422002128461CF0B4FB0A23EA
:101618001622002128461CF0AEFB00240094234625
:101628002246214628461BF017F8214603980CF05D
:1016380053FC044609210CF0D1FC002F00F0A880CF
:10164800012F40F2AF8001220321039813F038FCE8
:10165800014620461BF074FD30461AF057FD01463E
:1016680020461BF085FD644A002120461CF060FBE3
:10167800012120461AF014FB604B7F2200212046EE
:101688001CF0C1FB0021204611F080F9804620465D
:101698001BF0FCFE0146024640461BF0EDFC4046AE
:1016A80011F002FA4146204611F070F98046BB213C
:1016B80011F0CCF94146204611F068F911F0E2F931
:1016C800012F79D02B46022264214D4820F018F8CA
:1016D80017B0BDE8F08F02211CE522F003FB03469A
:1016E80048F28E02012120461CF08DFB24E51C23C4
:1016F8001222002120461CF03EFB15231122002156
:1017080020461CF038FB0E231322002120461CF033
:1017180032FB0E231022002120461CF02CFB002255
:10172800114620460BF02AFD0022114620460BF0F8
:101738000DFD01230022334920460BF05BFD0123F8
:101748000022314920460BF031FD17E501221146F0
:10175800039813F0B5FB81463EE601220221039867
:1017680013F0AEFB814637E601221146039813F0C9
:10177800A7FB014630461BF0E3FC28E701220221C3
:10178800039813F09DFB014630461BF0D9FC1EE779
:1017980001221146039813F093FB014620461BF0E3
:1017A800CFFC59E701220221039813F089FB014677
:1017B80020461BF0C5FC4FE7042120461AF086FAA4
:1017C8001522002120461BF05FFD87B2142240211C
:1017D80003981BF059FD17FA80F000B2009000231F
:1017E8000D22314620461AF037FF6BE7A41603088E
:1017F80011100008A816030828530020AC16030887
:10180800B10F00084C16030860160308062900D01B
:10181800704710B582B004460DF1060201A917F011
:101828009FF8012801D002B010BDBDF80620002A9B
:10183800F9D0BDF804100029F5D0204617F066F855
:10184800012808D00123BDF80620BDF80410204661
:1018580016F0F4FFE7E70423BDF80620BDF80410EE
:10186800204616F0EBFFDEE72DE9F04F9BB0074668
:1018780013F078FA09210CF0B1FB00201FF01BFED1
:10188800064601221146384613F033FB8146002EE6
:1018980040F0AF8001221146384613F011FB804614
:1018A8000021384609F04CFE824601211AF0F8F969
:1018B800012E40F2A5804146C845A8BF494609B255
:1018C8000A4650461BF0D8FB002138460CF004FBB2
:1018D800044601211AF0E4F9002E00F0A380012E3D
:1018E80040F2B380002120461AF074F900232C221C
:1018F800194620461CF06FFA00233C221946204660
:101908001CF069FA00231222194620461CF033FA0B
:1019180000231322194620461CF02DFA002310221A
:10192800194620461CF027FA4146C845A8BF494633
:1019380009B20A4620461BF09FFB082120460CF0FE
:101948004DFB0021204615F0B5F80546CC4A00218C
:101958001CF0EEF9CB4B7F22002128461CF053FAED
:101968000021284615F0ACF90121284615F08EF91A
:101978000421284614F08AFC002E77D14FF0010B81
:101988000122594620461BF0CDFD014628461BF092
:10199800D7FB002120460DF0BDF90546B84A0021C5
:1019A8001CF0C6F9B84B7F22002128461CF02BFA00
:1019B8000122594620461BF0B5FD014628461BF07A
:1019C800BFFBB24928460DF0F9F80021384612F05D
:1019D8004DF80546012113F089F94A464146284643
:1019E8001BF04AFB5C22AA4903A82FF0E9FA00245D
:1019F80044E001220221384613F062FA80464FE79C
:101A08004246414650461BF037FB002E7FF45CAF40
:101A180022F068F9034648F28E02002150461CF075
:101A2800F2F951E7012300930022114620460CF0F9
:101A3800F5FA384613F0D0F9014620461BF080FB32
:101A4800032120460CF0CAFA7BE750461AF04AFBFD
:101A5800054650461AF05AFB0246294620461BF016
:101A68000BFB082120460CF0B9FA6AE74FF0020B8D
:101A780086E70221584607F02FFF02341AAB03EB22
:101A8800840353F85C1C79B1631C1AAA02EB830324
:101A980053F85C2C284611F0F1FE8346012107F02B
:101AA80005FF042CE9D1E4E702227A49504609F0FF
:101AB800FBFDDFF824A250461EF0CCFA7F222C2131
:101AC80050461EF007FE724BB3F85C2029215046A1
:101AD8001EF042FD0021384613F01AF804464A4623
:101AE80041461BF0C9FA204613F076F90546012154
:101AF800204613F0FBF80021204616F0F1FD0446BD
:101B0800524604211CF014F9002120461AF076FBF5
:101B1800012120461AF0C4F85F4920461AF000F95E
:101B2800002E00F082800321204616F091FD002E41
:101B380000F08180952D7ADD584B83FB0523EA1749
:101B4800C2EB630212B20021204616F059FE6D0066
:101B5800B5F5967F6DDB514B83FB0523ED17C5EB80
:101B680063052DB22A460121204616F049FE2A4671
:101B78000221204616F044FE494B00221146204619
:101B880016F0ECFC474B00220121204616F0E6FC3B
:101B9800454B00220221204616F0E0FC434B002270
:101BA8000321204616F0DAFC414B0022042120468E
:101BB80016F0D4FC3F4B00220521204616F0CEFC3F
:101BC8003D4B00220621204616F0C8FC3B4B012263
:101BD8000021204616F0C2FC394B0122114620464E
:101BE80016F0BCFC374B01220221204616F0B6FC49
:101BF800354B01220321204616F0B0FC334B01225D
:101C08000421204616F0AAFC314B0122052120466A
:101C180016F0A4FC2F4B01220621204616F09EFC4C
:101C2800002E5BD11BB0BDE8F08F02217CE71E229D
:101C380089E73C2596E77B2D1BDD2B46002D16DB1F
:101C4800C3F38F02013A12B20021204616F0D8FDE4
:101C580005EB4505F32D10DD2B46002D0BDB9A1007
:101C6800013A12B20121204616F0CAFD84E7EB1CA6
:101C7800E6E71E22E8E7EB1CF1E73C22F2E700BFAB
:101C88002853002038140308401403084C14030890
:101C980014130308145000201518000867666666B8
:101CA800F4140308F8140308FC14030800150308C7
:101CB80004150308081503080C1503081015030874
:101CC80018150308201503082815030830150308FC
:101CD80038150308401503082C530020154B022221
:101CE8000021204616F03AFC134B0222012120461F
:101CF80016F034FC114B02221146204616F02EFC39
:101D08000F4B02220321204616F028FC0D4B02221D
:101D18000421204616F022FC0B4B02220521204606
:101D280016F01CFC094B02220621204616F016FC70
:101D380078E700BF4815030850150308581503082D
:101D4800641503086C150308741503087C1503084B
:101D580038B51FF073FB1FF0E0FA002117F0A0FC64
:101D68006B4B186000201FF0A6FB002845D1684C7B
:101D78006849206817F0AEFB674B18606749206810
:101D880017F0A8FB664B18606649206817F0A2FB9D
:101D9800654B1860654C20461EF05CF909227521D8
:101DA80020461EF01BFB00201FF077FB00EB800095
:101DB8004300EF2B00F38D804FF0FF3274215B4816
:101DC8001EF00CFB00201FF068FBC0EB0010430066
:101DD800EF2B00F38D800122152154481EF0FEFAE6
:101DE8004D4B1868FEF70EFF4D4B1868FFF77AF950
:101DF8004D4B1868FFF738FD38BD454B1C681FF080
:101E08001DFB1FF021FB00EBD07040F34F031222A3
:101E1800412120461BF0AFFF1FF010FB1FF07DFA99
:101E2800002115F0D9FC044621F080FF10F0010FC5
:101E38002CD13F49204619F073FF00201FF02DFBDD
:101E480000EB80004300EF2B25DC012500201FF06C
:101E580024FB00EB80004300EF2B2BDC01222946FA
:101E680020461AF039FB334B7F22002120461BF015
:101E7800CAFF13237522002120461BF07CFF022392
:101E88007322002120461BF076FF70E700212046D0
:101E980015F048FDCDE700201FF0FFFA00EB8000A9
:101EA80043005033244D85FB0325DB17C3EBA515F1
:101EB8002DB2CBE700201FF0F0FA00EB80004300C2
:101EC80050331D4A82FB0312DB17C3EBA21212B276
:101ED800C5E700201FF0E1FA00EB80004200503215
:101EE800154B83FB0213D217A2EBA31212B265E7BC
:101EF80000201FF0D2FAC0EB0010420050320E4B07
:101F080083FB0213D217C2EBA31212B264E700BF1D
:101F18003C530020181403083053002024140308ED
:101F2800345300202C140308385300202853002071
:101F3800650A0008101403086766666670B50C46E3
:101F4800013A272A31D8DFE812F028003600BB0012
:101F58008F004A005400FD0230001801370240008B
:101F68001F030402410330003000720030005201A8
:101F78003000E201FA01310330014001DD015C016A
:101F8800C501F800D502ED02E600A1006A027E0153
:101F98009F01AD02A9018202A302002120461AF086
:101FA800DBF8CB4B19681EF0B9F8FF221146204622
:101FB8001BF04CFE70BD002120461AF0CDF8C44B32
:101FC800196804311EF0AAF8EFE7002120461AF03C
:101FD800C3F8BF4B196804311EF0A0F8E5E70021EB
:101FE80020461AF0B9F8BA4B196810311EF096F865
:101FF800DBE7002120461AF0AFF80646B44D296801
:1020080004311EF08BF82968183130461EF086F826
:10201800012120461AF0A0F80646296804311EF06E
:102028007DF82968083130461EF078F8BDE70021B0
:1020380020461AF091F80646A54D29681EF06EF85C
:1020480029686C3130461EF069F8012120461AF0E3
:1020580083F80646296804311EF060F829680831BB
:1020680030461EF05BF8A0E7002120461AF074F80D
:10207800974D296828311EF051F8012120461AF0A1
:102088006BF829682C311EF049F88EE700212046AC
:102098001AF062F88E4D296828311EF03FF80121A8
:1020A80020461AF059F829682C311EF037F8022119
:1020B80020461AF051F82968A0311EF02FF874E76D
:1020C800002120461AF048F80646814D2968043157
:1020D8001EF024F82968203130461EF01FF801212F
:1020E80020461AF039F829681C311EF017F8022129
:1020F80020461AF031F80646296804311EF00EF819
:102108002968083130461EF009F82968243130461C
:102118001EF004F849E7002120461AF01DF86C4D1E
:10212800296820311DF0FAFF012120461AF014F821
:1021380029681C311DF0F2FF37E7002120461AF00C
:102148000BF80646624D296828311DF0E7FF29681B
:10215800983130461DF0E2FF0121204619F0FCFFBE
:1021680029682C311DF0DAFF0221204619F0F4FF0E
:10217800296894311DF0D2FF17E70021204619F095
:10218800EBFF534D296850311DF0C8FF4021204610
:1021980019F0E2FF0646296810311DF0BFFF2968D3
:1021A800543130461DF0BAFFFFE60021204619F0F1
:1021B800D3FF0646464D296804311DF0AFFF296854
:1021C800803130461DF0AAFFEFE64021204619F085
:1021D800C3FF3F4D296818311DF0A0FF412120465B
:1021E80019F0BAFF296810311DF098FFDDE60021CB
:1021F800204619F0B1FF364B196870311DF08EFF7B
:10220800D3E60021204619F0A7FF314D2968043193
:102218001DF084FF4021204619F09EFF29681431E3
:102228001DF07CFF0121204619F096FF29688431B2
:102238001DF074FF0221204619F08EFF29688831AD
:102248001DF06CFFB1E60021204619F085FF204DF6
:1022580029681DF063FF4121204619F07DFF296898
:10226800AC311DF05BFF4321204619F075FF29684A
:10227800B0311DF053FF4221204619F06DFF296847
:10228800A8311DF04BFF90E64021204619F064FF6D
:102298000F4B1968B4311DF041FF86E60021204636
:1022A80019F05AFF0A4D29681DF038FF0121204610
:1022B80019F052FF296884311DF030FF02212046B1
:1022C80019F04AFF296888311DF028FF6DE600BF24
:1022D800485300200021204619F03EFF0646CB4D0A
:1022E800296804311DF01AFF29688C3130461DF029
:1022F80015FF0321204619F02FFF296890311DF0A2
:102308000DFF52E60021204619F026FF4DE6002178
:10231800204619F021FF0646BC4D296804311DF0FE
:10232800FDFE2968783130461DF0F8FE012120466F
:1023380019F012FF296884311DF0F0FE35E60021FE
:10234800204619F009FFB14B19687C311DF0E6FEF3
:102358002BE60021204619F0FFFE0646AB4D296802
:1023680004311DF0DBFE2968083130461DF0D6FE29
:102378002968183130461DF0D1FE4021204619F059
:10238800EBFE0646296804311DF0C8FE296858315D
:1023980030461DF0C3FE4121204619F0DDFE2968B4
:1023A80084311DF0BBFE4221204619F0D5FE296874
:1023B8005C311DF0B3FEF8E50021204619F0CCFE93
:1023C8000646924D296804311DF0A8FE296844315B
:1023D80030461DF0A3FE2968183130461DF09EFED8
:1023E8000121204619F0B8FE0646296818311DF06B
:1023F80095FE2968483130461DF090FE032120469D
:1024080019F0AAFE296848311DF088FE02212046ED
:1024180019F0A2FE29684C311DF080FEC5E50021A7
:10242800204619F099FE794B196804311DF076FEA3
:10243800012509E0E9B2204619F08EFE734B1968B0
:10244800A4311DF06BFE0135042DF3DDADE500214F
:10245800204619F081FE6D4D29681DF05FFE42216E
:10246800204619F079FE296884311DF057FE412174
:10247800204619F071FE2968B4311DF04FFE402145
:10248800204619F069FE2968AC311DF047FE8CE53D
:102498000021204619F060FE5C4B1968A8311DF038
:1024A8003DFE82E50021204619F056FE0646574DAE
:1024B800296804311DF032FE2968183130461DF0B4
:1024C8002DFE0421204619F047FE2968BC311DF075
:1024D80025FE0321204619F03FFE2968B8311DF07A
:1024E8001DFE0121204619F037FE296884311DF0B0
:1024F80015FE5AE50021204619F02EFE0646434DEA
:10250800296804311DF00AFE2968183130461DF08B
:1025180005FE0321204619F01FFE29689C311DF095
:10252800FDFD42E50021204619F016FE0646374D0E
:10253800296804311DF0F2FD2968083130461DF084
:10254800EDFD32E50021204619F006FE2F4D2968E1
:1025580004311DF0E3FD0321204619F0FDFD296833
:1025680030311DF0DBFD0121204619F0F5FD296809
:1025780034311DF0D3FD0221204619F0EDFD296804
:1025880038311DF0CBFD10E50021204619F0E4FD9F
:102598001E4D29683C311DF0C1FD0121204619F06E
:1025A800DBFD296840311DF0B9FDFEE4002120461D
:1025B80019F0D2FD0646154D296804311DF0AEFD0F
:1025C8002968743130461DF0A9FDEEE4002120464B
:1025D80019F0C2FD06460D4D296804311DF09EFD17
:1025E8002968603130461DF099FD0121204619F017
:1025F800B3FD296864311DF091FD0221204619F0D0
:10260800ABFD296868311DF089FDCEE448530020F0
:1026180008B5044B1B7813B11DF00CFE08BD1DF066
:1026280019FDFBE74453002038B56A4C2068283070
:10263800FFF7EEFF206847F6FF72012128301DF0F2
:10264800CDFE2068FF222C2128301EF043F8206898
:102658002830614B1B6A13F0020F00F096804FF090
:1026680000021B2363F30402352363F34A121A237F
:1026780063F3CF2229211DF06FFF564B18682830CD
:10268800554B1B6A13F0020F00F08B804FF00002CD
:10269800092363F30402102363F34A12062363F346
:1026A800CF2279211DF058FF4A4C20684A4DAA894B
:1026B800492128301DF050FF2068EA8940F249413D
:1026C80028301DF049FF206800224C2128301EF0D8
:1026D80001F820687F224FF4137128301DF0FAFFAB
:1026E800246828342B6A13F0200F5DD00022402183
:1026F80020461DF073FE374C20680022B021283098
:102708001DF06CFE20684C22B72128301DF066FEB3
:1027180020682C30FFF77CFF2068FF222C2108441A
:102728001DF0D8FF206847F6FF7201212C301DF0FC
:1027380055FE2068284DAA8929212C301DF00CFF50
:10274800206811234FF0000263F30402222161F391
:102758004A1263F3CF2242F229012C301DF0FCFE0D
:1027680020682C302B6A13F0020F30D04FF0000293
:10277800092363F30402102363F34A12082363F363
:10278800CF2279211DF0E8FE38BD4FF00002092361
:1027980063F30402122363F34A12082363F3CF227C
:1027A80068E70E4B1A887CE700201EF076FE772833
:1027B80001DC01229BE700201EF06FFE2830084B49
:1027C80083FB0023C217C2EB631212B28FE7034BDD
:1027D8001A88D6E7485300204C5300207413030886
:1027E8006766666610B5984C20689430FFF710FF4E
:1027F8002068FF222C2194301DF06CFF2068943053
:10280800924B1B6A13F0020F00F0A4808F4B9A8939
:1028180029211DF0A1FE8C4B186894308B4B1B6A44
:1028280013F0020F00F099804FF00002092363F3C0
:102838000402102363F34A12062363F3CF2279219B
:102848001DF08AFE804C206847F6FF720121943003
:102858001DF0C4FD2468943400201EF01EFEC0EB59
:10286800C000EF287CDC0122122120461DF0B6FDB5
:10287800754B1C68943400201EF00FFEC0EBC0009E
:10288800EF287BDC0122132120461DF0A7FD6E4BAB
:102898001C68943400201EF000FEC0EBC000EF2836
:1028A8007ADC0122102120461DF098FD664B1C6839
:1028B800943400201EF0F1FDC0EBC000EF2879DC55
:1028C8000122112120461DF089FD5F4C20689830B7
:1028D800FFF79EFE2468983400201EF0DEFD00EB12
:1028E80080004000EF2873DC0122172120461DF0EC
:1028F80075FD554B1C68983400201EF0CEFD00EB8A
:1029080080004000EF2872DC0122182120461DF0CB
:1029180065FD4D4B1C68983400201EF0BEFD00EB91
:1029280080004000EF2871DC0122152120461DF0AF
:1029380055FD454B1C68983400201EF0AEFD00EB99
:1029480080004000EF2870DC0122162120461DF08F
:1029580045FD10BD3E4B1A885AE73D4B1A886EE775
:1029680000201EF09AFDC0EBC0005030394B83FBAD
:102978000023C217C2EBA31212B275E700201EF0A3
:102988008CFDC0EBC0005030324B83FB0023C217D4
:10299800C2EBA31212B276E700201EF07EFDC0EB58
:1029A800C00050302B4B83FB0023C217C2EBA3128D
:1029B80012B277E700201EF070FDC0EBC000503067
:1029C800244B83FB0023C217C2EBA31212B278E791
:1029D80000201EF062FD00EB8000400050301D4BCF
:1029E80083FB0023C217C2EBA31212B27DE70020BB
:1029F8001EF053FD00EB800040005030154B83FB68
:102A08000023C217C2EBA31212B27EE700201EF009
:102A180044FD00EB8000400050300E4B83FB002348
:102A2800C217C2EBA31212B27FE700201EF035FDD9
:102A380000EB800040005030064B83FB0023C21798
:102A4800C2EBA31212B280E7485300204C53002077
:102A5800741303086766666610B5404C2068A0309A
:102A6800FFF7D6FD2068FF222C21A0301DF032FE92
:102A780020683B4B1A882921A0301DF06DFD206885
:102A880047F6FF720121A0301DF0A8FC2468A0348D
:102A980000201EF002FD3B2830DC4FF0FF321021F1
:102AA80020461DF09BFC2D4B1C68A03400201EF016
:102AB800F4FC3B282EDC4FF0FF32112120461DF09C
:102AC8008DFC264B1C68A03400201EF0E6FC3B2839
:102AD8002CDC4FF0FF32122120461DF07FFC1F4BEB
:102AE8001C68A03400201EF0D8FC3B282ADC4FF0DC
:102AF800FF32132120461DF071FC10BD00201EF08E
:102B0800CCFC1430174B83FB0023C217A2EB231213
:102B180012B2C4E700201EF0C0FC1430114B83FB36
:102B28000023C217A2EB231212B2C6E700201EF040
:102B3800B4FC14300B4B83FB0023C217A2EB231207
:102B480012B2C8E700201EF0A8FC1430054B83FB26
:102B58000023C217A2EB231212B2CAE7485300207F
:102B6800741303086766666638B5814C206874304C
:102B7800FFF74EFD206847F6FF72012174301DF003
:102B88002DFC2468743400201EF087FC00EB8000C4
:102B98008000EF2800F383800122122120461DF0D7
:102BA8001DFC734B1C68743400201EF076FC00EB8F
:102BB80080008000EF2800F3818001221321204645
:102BC8001DF00CFC6A4B1C68743400201EF065FC78
:102BD80000EB80008000EF287FDC012210212046D6
:102BE8001DF0FCFB624B1C68743400201EF055FC81
:102BF800C0EB00104000EF287EDC012214212046A3
:102C08001DF0ECFB5A4B1C68743400201EF045FC88
:102C180000EB800000EB8000EF287CDC0122C02163
:102C280020461DF0DBFB524C2068524DAA899921A1
:102C380074301DF091FC2068AA89C92174301DF0F8
:102C48008BFC206811234FF0000263F30402222159
:102C580061F34A1263F3CF22CA2174301DF07CFC61
:102C68002468743400201EF018FC00EB800040003B
:102C7800EF2860DC0122902120461DF0AFFB3C4B81
:102C88001C68743400201EF008FCC0EBC000EF285C
:102C980060DC0122C32120461DF0A0FB38BD0020C6
:102CA8001EF0FBFB00EB800080005030324B83FBB2
:102CB8000023C217C2EBA31212B26EE700201EF067
:102CC800ECFB00EB8000800050302B4B83FB002393
:102CD800C217C2EBA31212B270E700201EF0DDFB90
:102CE80000EB800080005030234B83FB0023C21789
:102CF800C2EBA31212B271E700201EF0CEFBC0EBAC
:102D08000010400050301C4B83FB0023C217C2EB5D
:102D1800A31212B272E700201EF0BFFB00EB800086
:102D280000EB80005030144B83FB0023C217C2EB2A
:102D3800A31212B273E700201EF0AFFB00EB800075
:102D4800400050300C4B83FB0023C217C2EBA31288
:102D580012B290E700201EF0A0FBC0EBC00050307C
:102D6800054B83FB0023C217C2EBA31212B291E7F3
:102D7800485300204C5300206766666670B5DB4CEC
:102D880020686030FFF744FC206811254FF00002EE
:102D980065F30402222666F34A1265F3CF229921CD
:102DA80060301DF0D9FB20684FF0000265F3040283
:102DB80066F34A1265F3CF22C92160301DF0CCFBBF
:102DC8002068CB4B9A89CA2160301DF0C5FB246866
:102DD800603400201EF061FB00EB8000EF2800F358
:102DE80041810122902120461DF0F8FABF4B1C6852
:102DF800603400201EF051FB3B2800F34181012282
:102E0800C32120461DF0EAFAB84B1C686034002044
:102E18001EF043FB1D2800F33F810122C2212046FA
:102E28001DF0DCFAB14B1C68603400201EF035FB45
:102E380000EB80008000EF2800F33A810122122184
:102E480020461DF0CBFAA94B1C68603400201EF008
:102E580024FB00EB80008000EF2800F3388101227A
:102E6800132120461DF0BAFAA04B1C6860340020DC
:102E78001EF013FB00EB80008000EF2800F33C817C
:102E88000122102120461DF0A9FA984B1C686034D5
:102E980000201EF002FB00EB80008000EF2800F30A
:102EA8003A810122142120461DF098FA8F4B1C68A4
:102EB800603400201EF0F1FAC0EB0010EF2800F398
:102EC80039810122C02120461DF088FA874C2068EC
:102ED80047F6FF72012160301DF080FA20686430E7
:102EE800FFF796FB206811254FF0000265F30402F6
:102EF800222666F34A1265F3CF22992164301DF029
:102F08002BFB20684FF0000265F3040266F34A12B7
:102F180065F3CF22C92164301DF01EFB2068744B75
:102F28009A89CA2164301DF017FB24686434002094
:102F38001EF0B3FA1D2800F30B81012290212046D0
:102F48001DF04CFA694B1C68643400201EF0A5FA89
:102F58001D2800F309810122C32120461DF03EFAF5
:102F6800624B1C68643400201EF097FA00EB800066
:102F780000EB8000EF2800F303810122C0212046E6
:102F88001DF02CFA594C20686830FFF741FB206887
:102F98006830574B1B6A13F0020F00F001814FF0A5
:102FA80000020B2363F30402122363F34A1208237B
:102FB80063F3CF2299211DF0CFFA4C4B1C6868347B
:102FC80000201EF06AFA1D2800F3ED8001229021EE
:102FD80020461DF003FA454C2068FF222C2168305A
:102FE8001DF078FB20686830414B1B6A13F0020F14
:102FF80000F0E5804FF000020B2363F30402122374
:1030080063F34A12082363F3CF2229211DF0A4FA9F
:10301800364C206847F6FF72012168301DF0DEF952
:103028002468683400201EF038FAC0EB0010400015
:10303800EF2800F3C7800122032120461DF0CEF9B6
:103048002A4B1C68683400201EF027FA00EB800029
:103058004000EF2800F3C5800122142120461DF00E
:10306800BDF970BD00201EF018FA00EB800050304A
:10307800204B83FB0023C217C2EBA31212B2B1E6A6
:1030880000201EF00AFA14301A4B83FB0023C217E3
:10309800C2EB231212B2B3E600201EF0FEF90A308A
:1030A800144B83FB0023C217C2EBE30212B2B5E64E
:1030B80000201EF0F2F900EB8000800050300D4B2C
:1030C80083FB0023C217C2EBA31212B2B7E600209B
:1030D8001EF0E3F900EB800080005030054B83FBC5
:1030E8000023C217C2EBA31212B2B9E6485300205C
:1030F8004C5300206766666600201EF0CEF900EB90
:103108008000800050303E4B83FB0023C217C2EB87
:10311800A31212B2B5E600201EF0BFF900EB800042
:1031280080005030364B83FB0023C217C2EBA3123A
:1031380012B2B7E600201EF0B0F9C0EB0010503014
:103148002F4B83FB0023C217C2EBA31212B2B9E6BE
:1031580000201EF0A2F90A30294B83FB0023C21776
:10316800C2EBE30212B2E9E600201EF096F90A303B
:10317800234B83FB0023C217C2EBE30212B2EBE638
:1031880000201EF08AF900EB800000EB8000503030
:103198001B4B83FB0023C217C2EBA31212B2EDE64E
:1031A800184B1A8806E700201EF077F90A30144BEE
:1031B80083FB0023C217C2EBE30212B207E7114BED
:1031C8001A8822E700201EF068F9C0EB00104000C2
:1031D80050300B4B83FB0023C217C2EBA31212B271
:1031E8002AE700201EF059F900EB8000400050301B
:1031F800034B83FB0023C217C2EBA31212B22CE7C6
:10320800676666667413030810B5524C20681C3054
:10321800FFF7FEF92068504B9A8999211C301DF060
:103228009BF924681C3400201EF037F900EB80005D
:1032380000EB8000EF2860DC0122902120461DF081
:10324800CDF8444C2068012294211C301DF0C6F8AA
:1032580020682030FFF7DCF9206820303E4B1B6ADD
:1032680013F0020F59D04FF000021B2363F304023E
:10327800352363F34A121A2363F3CF2299211DF0F1
:103288006BF9344B1C68203400201EF006F900EB63
:10329800800000EB8000EF284BDC012290212046C3
:1032A8001DF09CF82B4C20680122942120301DF041
:1032B80095F820682430FFF7ABF9206847F6FF72CD
:1032C800012124301DF08AF82068002210212430C2
:1032D8001DF084F820680022112124301DF07EF8AA
:1032E80020680022122124301DF078F8206800227E
:1032F800132124301DF072F810BD00201EF0CDF807
:1033080000EB800000EB80005030144B83FB00235F
:10331800C217C2EBA31212B28FE74FF000020923C3
:1033280063F30402122363F34A12082363F3CF22E0
:10333800A4E700201EF0B1F800EB800000EB80004D
:103348005030064B83FB0023C217C2EBA31212B204
:10335800A4E700BF485300204C5300206766666608
:1033680010B5894C20684430FFF752F92068443082
:10337800864B1B6A13F0020F00F0918015234FF063
:10338800000263F304022A2161F34A1263F3CF2295
:1033980048F289011DF0E0F87B4C20684830FFF7BF
:1033A80037F92468483400201EF077F8EF2800F336
:1033B80082800122902120461DF010F8724B1C6873
:1033C800483400201EF069F800EB80004000EF2828
:1033D8007DDC0122922120461DF000F86A4B1C6812
:1033E800483400201EF059F800EB80004000EF2818
:1033F8007CDC0122932120461CF0F0FF624B186808
:103408004830624B1B6A13F0020F7ED04FF0000267
:103418001C2363F30402372363F34A121A2363F36A
:10342800CF2299211DF098F8574C20684C30FFF7AF
:10343800EFF824684C3400201EF02FF800EB400011
:10344800EF286EDC0122902120461CF0C7FF4E4B6E
:103458001C684C3400201EF020F83B286FDC012249
:10346800032120461CF0BAFF474B1C684C3400204F
:103478001EF013F877286EDC0122142120461CF078
:10348800ADFF414B1C684C3400201EF006F8EF28B5
:103498006DDC0122012120461CF0A0FF10BD4FF079
:1034A8000002172363F304022B2363F34A12142345
:1034B80063F3CF226CE700201DF0EFFF5030344B50
:1034C80083FB0023C217C2EBA31212B272E70020DB
:1034D8001DF0E3FF00EB8000400050302C4B83FBD5
:1034E8000023C217C2EBA31212B273E700201DF02B
:1034F800D4FF00EB800040005030254B83FB0023B5
:10350800C217C2EBA31212B274E74FF000021223E3
:1035180063F30402222363F34A12102363F3CF22D6
:103528007FE700201DF0B9FF00EB40005030184B3A
:1035380083FB0023C217C2EBA31212B283E7002059
:103548001DF0ABFF1430124B83FB0023C217C2EBF4
:10355800231212B284E700201DF09FFF28300C4B85
:1035680083FB0023C217C2EB631212B285E7002067
:103578001DF093FF5030064B83FB0023C217C2EBAC
:10358800A31212B286E700BF485300204C53002014
:103598006766666638B5DD4C20683430FFF738F862
:1035A80020680022102134301CF018FF24683434BD
:1035B80000201DF080FF012840F2BF8100201DF08F
:1035C8006CFFC0EB00104000EF2800F3CD81012212
:1035D800122120461CF002FFCC4B1C68343400201A
:1035E8001DF069FF012840F2CE8100201DF055FF33
:1035F800C0EB00104000EF2800F3DC81012213210A
:1036080020461CF0EBFEC14C20680022112134300A
:103618001CF0E4FE2468343400201DF04CFF01281F
:1036280040F2D78100201DF038FFC0EB00104000A9
:10363800EF2800F3E5810122152120461CF0CEFE7B
:10364800B24B1C68343400201DF035FF012840F2CD
:10365800E68100201DF021FFC0EB00104000EF289C
:1036680000F3F4810122162120461CF0B7FEA74B77
:1036780018683430A64B1B6A13F0020F00F0F5816E
:1036880011234FF0000263F30402222161F34A126E
:1036980063F3CF2249F289011CF05EFF9B4C20683E
:1036A8003830FEF7B5FF20683830994B1B6A13F0A5
:1036B800020F00F0DD814FF00002092363F30402DA
:1036C800102363F34A12062363F3CF2248F28901D9
:1036D8001CF042FF8D4B1C68383400201DF0EBFEB7
:1036E800012840F2D08100201DF0D7FEC0EB001069
:1036F8004000EF2800F3DE810122122120461CF051
:103708006DFE824B1C68383400201DF0D4FE012861
:1037180040F2DF8100201DF0C0FEC0EB0010400029
:10372800EF2800F3ED810122132120461CF056FEFC
:10373800764B1C68383400201DF0BDFE012840F28D
:10374800EE8100201DF0A9FEC0EB00104000EF281C
:1037580000F3FC810122112120461CF03FFE6B4C36
:1037680020683030FEF754FF2468303400201DF004
:1037780094FE3B2800F3F9810122012120461CF028
:103788002DFE624B18683030614B1B6A13F0020F34
:1037980000F0F7814FF00002092363F304021023BD
:1037A80063F34A12062363F3CF2248F289111CF00F
:1037B800D3FE564C2068574B9A884AF2890130301C
:1037C8001CF0CAFE20683030514B1B6A13F0020F00
:1037D80000F0DA8133224FF496711CF07BFF4B4CDA
:1037E8002068332241F22C0130301CF073FF20682E
:1037F800FF224FF40B7130301CF06CFF2068454BF2
:103808001A8848F2892130301CF0A6FE2068404D05
:10381800AA8940F2292130301CF09EFE2068303001
:103828002B6A13F0020F00F0B1810C234FF0000255
:1038380063F30402192161F34A1263F3CF222921A9
:103848001CF08AFE314C2068314DAA8940F22911BA
:1038580030301CF081FE206802224FF4987130301D
:103868001CF0BCFD2068042240F2311130301CF0FD
:10387800B5FD2068AA8940F2391130301CF06CFE81
:103888002468303400201DF008FE00EB4000EF28CB
:1038980000F37F810122142120461CF09FFD1B4B61
:1038A8001C68303400201DF006FE012840F27F819C
:1038B80000201DF0F2FDC0EB00104000EF2800F3DF
:1038C8008D810122122120461CF088FD0F4B1C68B7
:1038D800303400201DF0EFFD012840F28E810020D9
:1038E8001DF0DBFDC0EB00104000EF2800F39C81C9
:1038F8000122132120461CF071FD044B1C68303452
:1039080000201DF0D8FD012806E000BF4853002024
:103918004C5300207413030840F2958100201DF0D9
:10392800BCFDC0EB00104000EF2800F3A38101228A
:10393800112120461CF052FD38BD00201DF0ADFDC0
:10394800C0EB0010EF2801DC012241E600201DF049
:10395800A4FDC0EB00105030CE4B83FB0023C217F0
:10396800C2EBA31212B233E600201DF096FDC0EBA5
:10397800001040005030C74B83FB0023C217C2EB36
:10398800A31212B224E600201DF087FDC0EB001040
:10399800EF2801DC012232E600201DF07EFDC0EB9D
:1039A80000105030BB4B83FB0023C217C2EBA3129D
:1039B80012B224E600201DF070FDC0EB001040009C
:1039C8005030B44B83FB0023C217C2EBA31212B2D0
:1039D80015E600201DF061FDC0EB0010EF2801DCAA
:1039E800012229E600201DF058FDC0EB00105030E0
:1039F800A84B83FB0023C217C2EBA31212B21BE62B
:103A080000201DF04AFDC0EB001040005030A14BD3
:103A180083FB0023C217C2EBA31212B20CE60020EC
:103A28001DF03BFDC0EB0010EF2801DC01221AE677
:103A380000201DF032FDC0EB00105030954B83FB89
:103A48000023C217C2EBA31212B20CE600201DF02D
:103A580024FDC0EB0010400050308E4B83FB002348
:103A6800C217C2EBA31212B2FDE58B4B1A8811E6FE
:103A78001D234FF0000263F304023B2161F34A1255
:103A880063F3CF2222E600201DF007FDC0EB0010F3
:103A9800EF2801DC012230E600201DF0FEFCC0EB1F
:103AA800001050307B4B83FB0023C217C2EBA312DC
:103AB80012B222E600201DF0F0FCC0EB001040001E
:103AC8005030744B83FB0023C217C2EBA31212B20F
:103AD80013E600201DF0E1FCC0EB0010EF2801DC2C
:103AE800012221E600201DF0D8FCC0EB0010503068
:103AF800684B83FB0023C217C2EBA31212B213E672
:103B080000201DF0CAFCC0EB001040005030614B93
:103B180083FB0023C217C2EBA31212B204E60020F3
:103B28001DF0BBFCC0EB0010EF2801DC012212E6FF
:103B380000201DF0B2FCC0EB00105030554B83FB49
:103B48000023C217C2EBA31212B204E600201DF034
:103B5800A4FCC0EB0010400050304E4B83FB002308
:103B6800C217C2EBA31212B2F5E500201DF095FCB6
:103B78001430484B83FB0023C217C2EB231212B246
:103B8800FBE5454B1A8810E6662224E6424B1A8864
:103B980055E600201DF081FC00EB400050303D4B05
:103BA80083FB0023C217C2EBA31212B273E60020F4
:103BB8001DF073FCC0EB0010EF2801DC012281E648
:103BC80000201DF06AFCC0EB00105030314B83FB25
:103BD8000023C217C2EBA31212B273E600201DF035
:103BE8005CFCC0EB0010400050302A4B83FB0023E4
:103BF800C217C2EBA31212B264E600201DF04DFCFE
:103C0800C0EB0010EF2801DC012272E600201DF055
:103C180044FCC0EB001050301E4B83FB0023C2173E
:103C2800C2EBA31212B264E600201DF036FCC0EB12
:103C3800001040005030174B83FB0023C217C2EB23
:103C4800A31212B255E600201DF027FCC0EB0010AD
:103C5800EF2801DC01226BE600201DF01EFCC0EB02
:103C6800001050300B4B83FB0023C217C2EBA3128A
:103C780012B25DE600201DF010FCC0EB0010400001
:103C88005030044B83FB0023C217C2EBA31212B2BD
:103C98004EE600BF676666667413030838B5964C2F
:103CA80020683C30FEF7B4FC24683C3400201DF04A
:103CB800F4FBC0EB00104000EF2800F3B2800122B3
:103CC800C02120461CF08AFB8B4C2068FF222C2147
:103CD8003C301CF0FFFC20683C30884B1B6A13F01A
:103CE800020F00F0AD804FF000021E2363F30402C0
:103CF8003B2363F34A121D2363F3CF2229211CF0CF
:103D08002BFC7D4B1C683C3400201DF0C6FB00EBEF
:103D180080008000EF2800F39F80012214212046B4
:103D28001CF05CFB744C206847F6FF7201213C30A4
:103D38001CF054FB20684030FEF76AFC206847F608
:103D4800FF72012140301CF049FB20686C4D2A8825
:103D5800292140301CF000FC2068FF222C21403033
:103D68001CF0B8FC20680222302140301CF036FBE1
:103D78002068AA88392140301CF0EEFB20685F4D8E
:103D8800AA8940F2392140301CF0E6FB2068EA8914
:103D980040F2394140301CF0DFFB246840340020F9
:103DA8001DF07BFB00EB400300EB8300EF2862DC97
:103DB8000122122120461CF011FB4F4B1C68403495
:103DC80000201DF06AFB00EB400300EB8300EF28A6
:103DD80061DC0122132120461CF000FB464B1C68C5
:103DE800403400201DF059FB00EB400300EB83003A
:103DF800EF2860DC0122102120461CF0EFFA3E4B30
:103E08001C68403400201DF048FB00EB400300EB29
:103E18008300EF285FDC0122112120461CF0DEFA26
:103E280038BD00201DF039FBC0EB001040005030B9
:103E3800344B83FB0023C217C2EBA31212B23FE735
:103E48004FF000020B2363F30402122363F34A12B8
:103E5800082363F3CF2251E700201DF01EFB00EB7F
:103E6800800080005030274B83FB0023C217C2EB31
:103E7800A31212B252E700201DF00FFB00EB400224
:103E880000EB820050301F4B83FB0023C217C2EBAC
:103E9800A31212B28DE700201DF0FFFA00EB4002DA
:103EA80000EB82005030174B83FB0023C217C2EB94
:103EB800A31212B28EE700201DF0EFFA00EB4002C9
:103EC80000EB820050300F4B83FB0023C217C2EB7C
:103ED800A31212B28FE700201DF0DFFA00EB4002B8
:103EE80000EB82005030074B83FB0023C217C2EB64
:103EF800A31212B290E700BF485300204C53002091
:103F0800741303086766666638B5B14C206850308C
:103F1800FEF77EFB2468503400201DF0BEFA3B28D3
:103F280000F3D4800122012120461CF057FAA84B47
:103F38001C68503400201DF0B0FA00EB80004300EC
:103F4800EF2B00F3CF800122142120461CF046FA03
:103F58009F4C20689F4DAA89492150301CF0FCFADB
:103F6800206800224C2150301CF0B4FB20687F22CE
:103F78004FF4137150301CF0ADFB246850342B6A99
:103F880013F0200F00F0BD800022402120461CF0D5
:103F980025FA8F4B1C68503400201DF07EFA00EB88
:103FA80080004300EF2B00F3BF800122412120460F
:103FB8001CF014FA864C20680022B02150301CF006
:103FC8000DFA20684C22B72150301CF007FA2068FF
:103FD8005430FEF71DFB206800224FF41371543053
:103FE8001CF078FB2468543400201DF056FA3B2856
:103FF80000F3A9800122012120461CF0EFF9744C3E
:104008002068754A4FF4B77154301CF023FC2068BF
:10401800724B1A8840F2691154301CF09DFA2068DE
:1040280000226C2154301CF055FB2068FF224FF40D
:10403800B67154301CF04EFB20686C22B421543009
:104048001CF0CCF92068634B1A6948F28E11543081
:104058001CF000FC2468543400201DF01EFA00EB0C
:104068004000EF287BDC0122122120461CF0B6F923
:10407800574B1C68543400201DF00FFA00EB400029
:10408800EF287ADC0122132120461CF0A7F9504BB7
:104098001C68543400201DF000FA00EB4000EF28A3
:1040A80079DC0122102120461CF098F9484B1C6845
:1040B800543400201DF0F1F900EB4000EF2878DCC3
:1040C8000122112120461CF089F938BD00201DF07D
:1040D800E4F91430424B83FB0023C217C2EB2312CE
:1040E80012B220E700201DF0D8F900EB8000420052
:1040F80050323B4B83FB0213D217C2EBA31212B20E
:1041080022E700201DF0C9F9772801DC01223CE7ED
:1041180000201DF0C2F92830314B83FB0023C21761
:10412800C2EB631212B230E700201DF0B6F900EBC3
:104138008000420050322A4B83FB0213D217C2EB95
:10414800A31212B232E700201DF0A7F91430244B55
:1041580083FB0023C217C2EB231212B24BE70020E5
:104168001DF09BF900EB400050301D4B83FB0023F2
:10417800C217C2EBA31212B276E700201DF08DF928
:1041880000EB40005030164B83FB0023C217C2EBF4
:10419800A31212B277E700201DF07FF900EB400070
:1041A80050300F4B83FB0023C217C2EBA31212B28D
:1041B80078E700201DF071F900EB40005030084B03
:1041C80083FB0023C217C2EBA31212B279E700BF28
:1041D800485300204C530020B015030874130308FB
:1041E8006766666610B56E4C20686C30FEF710FA8C
:1041F8002068002201216C301CF0F0F824686C342F
:1042080000201DF04AF93B2874DC012230212046A9
:104218001CF0E4F8624C2068022231216C301CF05A
:10422800DDF820686C305F4B1B6A13F0020F6DD00D
:104238004FF00002082363F304020F2363F34A12CA
:10424800072363F3CF2239211CF086F9544C2068E8
:10425800544BDA8940F239416C301CF07DF92468FE
:104268006C3400201DF019F900EB8000EF2850DCB9
:104278000122122120461CF0B1F8494B1C686C340D
:1042880000201DF00AF900EB8000EF284FDC012226
:10429800132120461CF0A2F8414B1C686C34002006
:1042A8001DF0FBF800EB8000EF284EDC0122102106
:1042B80020461CF093F83A4B1C686C3400201DF023
:1042C800ECF800EB8000EF284DDC0122112120469C
:1042D8001CF084F8324B1C686C3400201DF0DDF8AB
:1042E80000EB4000EF284CDC0122142120461CF092
:1042F80075F810BD00201DF0D0F814302A4B83FB50
:104308000023C217C2EB231212B27FE74FF000025C
:1043180099E700201DF0C1F800EB80005030224BD7
:1043280083FB0023C217C2EBA31212B2A1E700203D
:104338001DF0B3F800EB800050301B4B83FB0023CB
:10434800C217C2EBA31212B2A2E700201DF0A5F813
:1043580000EB80005030144B83FB0023C217C2EBE4
:10436800A31212B2A3E700201DF097F800EB80001B
:1043780050300D4B83FB0023C217C2EBA31212B2BD
:10438800A4E700201DF089F800EB40005030064BF0
:1043980083FB0023C217C2EBA31212B2A5E700BF2A
:1043A800485300204C5300206766666610B51E4CC3
:1043B80020688030FEF72CF92468803400201DF036
:1043C8006CF8322303FB00F0EF2812DC01225021A5
:1043D80020461CF003F8144B18688030134B1B6AF6
:1043E80013F0020F14D0124B1A8959211CF0B4F89B
:1043F80010BD00201DF051F8322202FB00F05030B1
:104408000C4B83FB0023C217C2EBA31212B2DEE7E8
:1044180013234FF0000263F30402262161F34A12CA
:1044280063F3CF22E1E700BF485300204C5300203C
:10443800741303086766666610B5524C20688430AA
:10444800FEF7E6F82068FF222C2184301CF042F9A0
:10445800206884304C4B1B6A13F0020F5CD04FF07D
:1044680000021A2363F30402332363F34A12192365
:1044780063F3CF2229211CF06FF8424C206847F6DD
:10448800FF72012184301BF0A9FF246884340020C6
:104498001DF003F8C0EBC000EF2849DC012203211E
:1044A80020461BF09BFF374B1C68843400201CF00F
:1044B800F4FFC0EBC000EF2848DC0122132120469E
:1044C8001BF08CFF2F4B1C68843400201CF0E5FF88
:1044D800C0EBC000EF2847DC0122112120461BF069
:1044E8007DFF284C20688830FEF792F82068FF226C
:1044F8002C2188301CF0EEF8206811234FF00002C0
:1045080063F30402222161F34A1263F3CF222921C3
:1045180088301CF021F810BD4FF00002102363F31F
:1045280004021F2363F34A120E2363F3CF22A1E789
:1045380000201CF0B2FFC0EBC0005030134B83FBCF
:104548000023C217C2EBA31212B2A8E700201CF086
:10455800A4FFC0EBC00050300C4B83FB0023C217F4
:10456800C2EBA31212B2A9E700201CF096FFC0EB21
:10457800C0005030054B83FB0023C217C2EBA312C7
:1045880012B2AAE7485300204C53002067666666BB
:1045980010B5424C2068B830FEF73AF82068B830B9
:1045A8003F4B1B6A13F0020F48D04FF0000209235B
:1045B80063F30402102363F34A12062363F3CF2242
:1045C80039211BF0C9FF354B1C68B83400201CF09A
:1045D80064FF77283EDC0122302120461BF0FEFED6
:1045E8002E4B1C68B83400201CF057FFEF283DDC28
:1045F8000122122120461BF0F1FE284C20680422DB
:104608003121B8301BF0EAFE2068BC30FEF700F814
:104618002068BC30224B1B6A13F0020F32D01523DE
:104628004FF0000263F304022A2161F34A1263F394
:10463800CF2248F289011BF08FFF10BD4FF0000216
:10464800152363F304022A2363F34A12142363F342
:10465800CF22B5E700201CF020FF2830114B83FB48
:104668000023C217C2EB631212B2B5E700201CF098
:1046780014FF50300B4B83FB0023C217C2EBA3126D
:1046880012B2B6E74FF00002172363F304022B239C
:1046980063F34A12142363F3CF22CAE74853002076
:1046A8004C5300206766666610B52C4C20689C3019
:1046B800FDF7AEFF2068FF222C219C301CF00AF881
:1046C8002068274B9A8929219C301BF045FF2068D8
:1046D800244B1A8848F289019C301BF03DFF24685E
:1046E8009C3400201CF0D9FE642303FB00F0EF2863
:1046F80015DC0122102120461BF070FE174B1C68A8
:104708009C3400201CF0C9FE642303FB00F0EF2852
:1047180014DC0122112120461BF060FE10BD002090
:104728001CF0BBFE642202FB00F050300E4B83FBF2
:104738000023C217C2EBA31212B2DBE700201CF061
:10474800ACFE642202FB00F05030074B83FB0023D1
:10475800C217C2EBA31212B2DCE700BF4853002015
:104768004C530020741303086766666670B5D54C11
:1047780020687830FDF74CFF20680122022178304C
:104788001BF02CFE20680022122178301BF026FE38
:1047980020680022132178301BF020FE20680022B8
:1047A800102178301BF01AFE206800221121783081
:1047B8001BF014FE20680022142178301BF00EFE36
:1047C80020687C30FDF724FF2068FF222C217C30F4
:1047D8001BF080FF20687C30BB4B1B6A13F0020F74
:1047E80000F0EE814FF0FF3229211BF0B5FEB54BEA
:1047F80018687C30B44B1B6A13F0020F00F0EC8190
:104808001D234FF0000263F304023B2161F34A12B7
:1048180063F3CF2241F229011BF09EFEA94B1868D1
:104828007C30A94B1B6A13F0020F00F0E1814FF0B6
:10483800FF3242F229011BF08FFEA24D2868A24CDC
:10484800A28940F229117C301BF086FE2E687C3646
:104858003321A0891EF038FE024641F22911304664
:104868001BF07AFE28687C30236A13F0020F00F0F0
:10487800CB814FF00002082363F304020F2363F394
:104888004A12072363F3CF2248F289011BF064FE22
:104898008C4B18687C308C4B1B6A13F0020F00F0AD
:1048A800B6814FF0FF3248F289111BF055FE854B57
:1048B80018687C30844B1B6A13F0020F00F0AA8141
:1048C80015234FF0000263F304022A2161F34A1210
:1048D80063F3CF224AF289011BF03EFE794B186838
:1048E8007C30794B1B6A13F0020F00F09E814FF069
:1048F8000002082363F304020F2363F34A12072319
:1049080063F3CF2248F2A9011BF026FE6D4B18680D
:104918007C306D4B1B6A13F0020F00F089814FF059
:10492800FF3248F2A9111BF017FE664B18687C305D
:10493800654B1B6A13F0020F00F07D8115234FF0C1
:10494800000263F304022A2161F34A1263F3CF22BF
:104958004AF2A9011BF000FE5A4C206801223121BD
:104968007C301BF03BFD20687C30574B1B6A13F0F2
:10497800020F00F06B814FF000021C2363F3040266
:10498800372363F34A121A2363F3CF2239211BF02A
:10499800E3FD4C4C20684C4DAA8940F239217C300B
:1049A8001BF0DAFD2068012230217C301BF016FD57
:1049B8002068EA8940F249217C301BF0CDFD24684B
:1049C8007C342B6A13F0200F00F04C8100224FF446
:1049D800107120461BF002FD3A4B1C687C34002005
:1049E8001CF05BFD772800F350814FF0FF3240F256
:1049F800412120461BF0F2FC324B1C687C3400201D
:104A08001CF059FD012840F24C8100201CF045FDA6
:104A1800C0EB00104000EF2800F35A810122122158
:104A280020461BF0DBFC274B1C687C3400201CF064
:104A380042FD012840F25B8100201CF02EFDC0EBF6
:104A480000104000EF2800F369810122132120465D
:104A58001BF0C4FC1B4B1C687C3400201CF02BFD95
:104A6800012840F26A8100201CF017FDC0EB0010FD
:104A78004000EF2800F378810122102120461BF026
:104A8800ADFC104B1C687C3400201CF014FD012880
:104A980040F2798100201CF000FDC0EB00104000BE
:104AA800EF2800F387810122112120461BF096FC94
:104AB800044B1C687C3400201CF0FDFC012840F2EB
:104AC800888103E0485300204C53002000201CF04C
:104AD800E4FCC0EB00104000EF2800F391810122B4
:104AE800142120461BF07AFCD24B1C687C34002031
:104AF8001CF0E1FC012840F2928100201CF0CDFC62
:104B0800C0EB00104000EF2800F3A6814FF0FF3201
:104B1800042120461BF062FCC64B1C687C34002034
:104B28001CF0BBFC772800F3A6814FF0FF3241F25E
:104B3800040120461BF052FCBE4B1C687C3400204C
:104B48001CF0ABFC772800F3A2814FF0FF324FF442
:104B5800827120461BF042FCB64B1C687C34002056
:104B68001CF09BFC772800F39E814FF0FF3242F245
:104B7800040120461BF032FCAE4B1C687C3400203C
:104B88001CF08BFC772800F39A814FF0FF324FF42A
:104B9800017120461BF022FCA64C20680022B0219F
:104BA8007C301BF01BFC20682922B7217C301BF0CD
:104BB80015FC20680422B6217C301BF00FFC70BD68
:104BC8004FF000020E2363F30402182363F34A1222
:104BD8000B2363F3CF2207E64FF000020A2363F3A7
:104BE8000402132363F34A12092363F3CF2211E665
:104BF8004FF000020E2363F30402182363F34A12F2
:104C08000B2363F3CF2214E64FF0FF323CE64FF05C
:104C1800FF3248E613234FF0000263F30402262113
:104C280061F34A1263F3CF2254E64FF0FF3269E68C
:104C38004FF0FF3275E613234FF0000263F30402CE
:104C4800262161F34A1263F3CF2281E64FF0000276
:104C5800122363F30402222363F34A12102363F33B
:104C6800CF2293E600201CF018FC772801DC0122F3
:104C7800ADE600201CF011FC28306F4B83FB0023AD
:104C8800C217C2EB631212B2A1E600201CF005FCA9
:104C98002830694B83FB0023C217A2EB631212B2C0
:104CA800A5E600201CF0F9FBC0EB0010EF2801DCA2
:104CB8000122B4E600201CF0F0FBC0EB00105030DD
:104CC8005D4B83FB0023C217C2EBA31212B2A6E608
:104CD80000201CF0E2FBC0EB001040005030564BA7
:104CE80083FB0023C217C2EBA31212B297E600207F
:104CF8001CF0D3FBC0EB0010EF2801DC0122A5E675
:104D080000201CF0CAFBC0EB001050304A4B83FB5C
:104D18000023C217C2EBA31212B297E600201CF0C0
:104D2800BCFBC0EB001040005030434B83FB00231A
:104D3800C217C2EBA31212B288E600201CF0ADFB2A
:104D4800C0EB0010EF2801DC012296E600201CF0E1
:104D5800A4FBC0EB00105030374B83FB0023C21775
:104D6800C2EBA31212B288E600201CF096FBC0EB3F
:104D7800001040005030304B83FB0023C217C2EBB9
:104D8800A31212B279E600201CF087FBC0EB0010DA
:104D9800EF2801DC012287E600201CF07EFBC0EB37
:104DA80000105030244B83FB0023C217C2EBA31220
:104DB80012B279E600201CF070FBC0EB0010400036
:104DC80050301D4B83FB0023C217C2EBA31212B253
:104DD8006AE600201CF061FBC0EB0010EF2801DC44
:104DE80001227DE600201CF058FBC0EB001050307B
:104DF800114B83FB0023C217C2EBA31212B26FE65A
:104E080000201CF04AFBC0EB0010400050300A4B59
:104E180083FB0023C217C2EBA31212B260E6002084
:104E28001CF03BFBC0EB0010EF2807DC4FF0FF3213
:104E38006EE600BF485300206766666600201CF0D7
:104E48002CFBC0EB00105030234B83FB0023C21710
:104E5800A2EBA31212B25BE600201CF01EFBC0EB13
:104E68000010400050301C4B83FB0023C217A2EBFC
:104E7800A31212B24CE600201CF00FFB2830164B90
:104E880083FB0023C217A2EB631212B24FE6002085
:104E98001CF003FB2830104B83FB0023C217A2EB46
:104EA800631212B253E600201CF0F7FA28300A4BBE
:104EB80083FB0023C217A2EB631212B257E600204D
:104EC8001CF0EBFA2830044B83FB0023C217A2EB3B
:104ED800631212B25BE600BF6766666638B5444C7B
:104EE80020685830FDF794FB2468583400201CF0E3
:104EF800D4FA00EB80008000EF2857DC012248F24A
:104F0800810120461BF06AFA394C206801220221EF
:104F180058301BF063FA20685C30FDF779FB206895
:104F2800FF222C215C301BF0D5FB2068314DAA896B
:104F380029215C301BF010FB20685C302B6A13F0D1
:104F4800020F42D04FF0FF3248F289011BF004FBF8
:104F5800274B18685C30274B1B6A13F0020F37D0B9
:104F68001D234FF0000263F304023B2161F34A1250
:104F780063F3CF2241F229011BF0EEFA1C4B1868AB
:104F88005C301C4B1B6A13F0020F2DD04FF000024F
:104F9800082363F304020F2363F34A12072363F31E
:104FA800CF2249F289011BF0D7FA38BD00201CF046
:104FB80074FA00EB8000800050300F4B83FB002315
:104FC800C217C2EBA31212B299E74FF0FF32BBE748
:104FD8004FF000020A2363F30402132363F34A1217
:104FE800092363F3CF22C5E74FF0FF32D9E700BFAB
:104FF800485300204C5300206766666610B5204C65
:1050080020688C30FDF704FB24688C3400201CF0E9
:1050180044FA00EB800000EB8000EF2820DC01223E
:1050280048F2810120461BF0D9F9154C20689030D0
:10503800FDF7EEFA2068FF222C2190301BF04AFB86
:105048002068104B9A89292190301BF085FA206836
:105058000D4B1A8848F2890190301BF07DFA10BD7B
:1050680000201CF01AFA00EB800000EB80005030A2
:10507800064B83FB0023C217C2EBA31212B2CFE781
:10508800485300204C530020741303086766666673
:1050980010B5914C2068A430FDF7BAFA2068A43006
:1050A8008E4B1B6A13F0020F71D04FF000021C23C5
:1050B80063F30402372363F34A121A2363F3CF22FC
:1050C80039211BF049FA844C206801223021A43090
:1050D8001BF084F9206803223121A4301BF07EF9EB
:1050E8002468A43400201CF0E6F901285BD90020CC
:1050F8001CF0D3F9C0EB00104000EF286ADC012255
:10510800122120461BF06AF9734B1C68A434002056
:105118001CF0D1F901286CD900201CF0BEF9C0EBB5
:1051280000104000EF287BDC0122132120461BF0F1
:1051380055F9694B1C68A43400201CF0BCF90128FF
:105148007DD900201CF0A9F9C0EB00104000EF2821
:1051580000F38C800122102120461BF03FF95E4BA2
:105168001C68A43400201CF0A6F9012840F28D80A8
:1051780000201CF092F9C0EB00104000EF2800F36B
:105188009B800122112120461BF028F910BD4FF009
:105198000002122363F30402222363F34A1210234A
:1051A80063F3CF228CE700201CF077F9C0EB0010E6
:1051B800EF2801DC0122A3E700201CF06EF9C0EB08
:1051C80000105030464B83FB0023C217C2EBA312DA
:1051D80012B295E700201CF060F9C0EB0010400007
:1051E80050303F4B83FB0023C217C2EBA31212B20D
:1051F80086E700201CF051F9C0EB0010EF2801DC15
:10520800012292E700201CF048F9C0EB0010503052
:10521800334B83FB0023C217C2EBA31212B284E7FD
:1052280000201CF03AF9C0EB0010400050302C4B25
:1052380083FB0023C217C2EBA31212B275E700204A
:105248001CF02BF9C0EB0010EF2801DC012282E7EB
:1052580000201CF022F9C0EB00105030204B83FBDB
:105268000023C217C2EBA31212B274E700201CF08D
:1052780014F9C0EB001040005030194B83FB002399
:10528800C217C2EBA31212B265E700201CF005F9A1
:10529800C0EB0010EF2801DC012273E700201CF0AE
:1052A800FCF8C0EB001050300D4B83FB0023C217F5
:1052B800C2EBA31212B265E700201CF0EEF8C0EBB7
:1052C800001040005030064B83FB0023C217C2EB8E
:1052D800A31212B256E700BF485300204C530020D7
:1052E8006766666638B5D74C2068AC30FDF790F92C
:1052F8002068FF222C21AC301BF0ECF92068AC3080
:10530800D14B1B6A13F0020F00F068814FF0FF3297
:1053180029211BF021F9CB4B1868AC30CA4B1B6A0A
:1053280013F0020F00F066814FF00002082363F3C8
:1053380004020F2363F34A12072363F3CF2248F2D0
:1053480089011BF009F9BF4C20684FF000021323B4
:1053580063F30402262363F34A12122363F3CF2272
:1053680048F2A901AC301BF0F7F82468AC340020EF
:105378001CF093F8C0EBC000EF2800F3478101222E
:10538800102120461BF02AF8AE4B1C68AC340020D4
:105398001CF083F8C0EBC000EF2800F34581012220
:1053A800122120461BF01AF8A64B1C68AC340020CA
:1053B8001CF073F8C0EBC000EF2800F3498101220C
:1053C800132120461BF00AF89E4C2068A830FDF7F0
:1053D8001FF920687F2241F22C01A8301BF07AF9CE
:1053E800206811234FF0000263F30402222161F3C5
:1053F8004A1263F3CF2241F22901A8301BF0ACF81E
:105408002068A830904B1B6A13F0020F00F02E8121
:105418004FF00002082363F304020F2363F34A12D8
:10542800072363F3CF2248F289111BF095F8854BC7
:105438001C68A83400201CF030F800EB80008000C5
:10544800EF2800F31F810122102120461AF0C6FF21
:105458007C4B1C68A83400201CF01FF800EB80006F
:105468008000EF2800F31D810122112120461AF047
:10547800B5FF744C2068744DAA8948F28921A83078
:105488001BF06AF82068EA8948F28941A8301BF0C5
:1054980063F82068B030FDF7BBF82068FF222C21A4
:1054A800B0301BF017F92068AA892921B0301BF009
:1054B80053F82068EA8940F22941B0301BF04CF8D3
:1054C8002468B03400201BF0E8FF00EB8000EF28D0
:1054D80000F3F6800122032120461AF07FFF594C81
:1054E800206847F6FF720121B0301AF077FF206874
:1054F800B430FDF78DF82468B43400201BF0DBFFCE
:10550800012840F2EB8000201BF0C7FFC0EB001021
:105518004000EF2800F3F9800122102120461AF0FC
:105528005DFF484B1C68B43400201BF0C4FF012801
:1055380040F2FA8000201BF0B0FFC0EB00104000E2
:10554800EF2800F308810122112120461AF046FFB6
:105558003C4B1C68B43400201BF0ADFF012840F21E
:10556800098100201BF099FFC0EB00104000EF28D4
:1055780000F317810122122120461AF02FFF314B28
:105588001C68B43400201BF096FF012840F21881F3
:1055980000201BF082FFC0EB00104000EF2800F352
:1055A80026810122132120461AF018FF254B1C687A
:1055B800B43400201BF07FFF012840F2278100202F
:1055C8001BF06BFFC0EB00104000EF2800F33581A3
:1055D8000122142120461AF001FF38BD4FF00002C5
:1055E8000E2363F30402182363F34A120B2363F3B5
:1055F800CF228DE64FF000021D2363F304023A2305
:1056080063F34A121C2363F3CF2298E600201BF0B1
:1056180044FFC0EBC00050300C4B83FB0023C21783
:10562800C2EBA31212B2ABE600201BF036FFC0EBB0
:10563800C0005030054B83FB0023C217C2EBA312F6
:1056480012B2ADE6485300204C53002067666666E8
:1056580000201BF022FFC0EBC00050307E4B83FBC4
:105668000023C217C2EBA31212B2A9E64FF0000240
:105678001D2363F304023A2363F34A121C2363F3E2
:10568800CF22D0E600201BF008FF00EB800080004E
:105698005030714B83FB0023C217C2EBA31212B226
:1056A800D2E600201BF0F9FE00EB800080005030AD
:1056B800694B83FB0023C217C2EBA31212B2D4E6D4
:1056C80000201BF0EAFE00EB80005030624B83FBA9
:1056D8000023C217C2EBA31212B2FCE600201BF093
:1056E800DCFEC0EB0010EF2801DC012215E70020EA
:1056F8001BF0D3FEC0EB00105030574B83FB002348
:10570800C217C2EBA31212B207E700201BF0C5FEB6
:10571800C0EB0010400050304F4B83FB0023C217F2
:10572800C2EBA31212B2F8E600201BF0B6FEC0EBE3
:105738000010EF2801DC012206E700201BF0ADFE77
:10574800C0EB00105030444B83FB0023C217C2EB60
:10575800A31212B2F8E600201BF09FFEC0EB001067
:10576800400050303C4B83FB0023C217C2EBA3120E
:1057780012B2E9E600201BF090FEC0EB0010EF2803
:1057880001DC0122F7E600201BF087FEC0EB0010C9
:105798005030314B83FB0023C217C2EBA31212B265
:1057A800E9E600201BF079FEC0EB00104000503005
:1057B800294B83FB0023C217C2EBA31212B2DAE60D
:1057C80000201BF06AFEC0EB0010EF2801DC01226C
:1057D800E8E600201BF061FEC0EB001050301E4BC5
:1057E80083FB0023C217C2EBA31212B2DAE6002031
:1057F8001BF053FEC0EB001040005030164B83FBEB
:105808000023C217C2EBA31212B2CBE600201BF092
:1058180044FEC0EB0010EF2801DC0122D9E600208D
:105828001BF03BFEC0EB001050300B4B83FB0023FA
:10583800C217C2EBA31212B2CBE600201BF02DFE5A
:10584800C0EB001040005030034B83FB0023C2170D
:10585800C2EBA31212B2BCE66766666670B5384C36
:1058680020687030FCF7D4FE2068FF222C217030AD
:105878001AF030FF2068334EB289292170301AF0AF
:105888006BFE20680222302170301AF0A7FD2068D4
:105898007F223C2170301AF01DFF256870354C219D
:1058A800B0891DF0D3FD0246392128461AF054FE6E
:1058B800206847F6FF72012170301AF08FFD2468C6
:1058C800703400201BF0E9FDC0EB0010EF281BDC52
:1058D8000122502120461AF081FD194C2068194BED
:1058E8009A89592170301AF037FE246870340020E4
:1058F8001BF0D3FD00EB8000EF2813DC01225321BD
:1059080020461AF06BFD70BD00201BF0C6FDC0EBF1
:10591800001050300C4B83FB0023C217C2EBA312BC
:1059280012B2D6E700201BF0B8FD00EB8000503023
:10593800054B83FB0023C217C2EBA31212B2DEE7AA
:10594800485300204C53002067666666F8B5D94C6A
:105958002068FCF75DFEFF222C2120681AF0BAFEB1
:105968002068D54B1B6A13F0020F00F090864FF0A9
:1059780000021E2363F304023B2363F34A121D2330
:1059880063F3CF2229211AF0E7FDCA4B1868CA4BE6
:105998001B6A13F0020F00F087864FF000020823FD
:1059A80063F304020F2363F34A12072363F3CF223E
:1059B80048F289011AF0D0FDBE4B1868BE4B1B6A2D
:1059C80013F0020F00F07D864FF00002082363F306
:1059D80004020F2363F34A12072363F3CF227921CA
:1059E8001AF0BAFDB34B1868B34B1B6A13F0020FD9
:1059F80000F074864FF00002082363F304020F23BB
:105A080063F34A12072363F3CF2248F28A011AF09C
:105A1800A3FDA84CA84DAA8948F28B0120681AF06A
:105A28009BFD6A697E2120681AF014FF2068043003
:105A3800FCF7EEFD2468043400201BF02EFD1D2821
:105A480000F359860122012120461AF0C7FC994C1F
:105A58002068FF222C2104301AF03CFE2068043014
:105A6800954B1B6A13F0020F00F052864FF0FF327D
:105A780029211AF071FD8F4B186804308E4B1B6A70
:105A880013F0020F00F058864FF000021C2363F356
:105A98000402372363F34A121A2363F3CF2239210E
:105AA8001AF05AFD844B1B6A13F0200F00F0518640
:105AB800804C2068804BDA8940F2394104301AF072
:105AC8004BFD2468043400201BF0E7FC772800F322
