:020000040800F2
:10000000000002206D53030881FB020883FB0208F5
:1000100085FB020887FB020889FB0208000000003C
:100020000000000000000000000000008BFB020840
:100030008DFB0208000000008FFB020891FB020804
:10004000E1530308E1530308E1530308E1530308B4
:10005000E1530308E1530308E1530308E1530308A4
:10006000E15303089FFB0208A9FB0208E1530308C0
:10007000E1530308E1530308E1530308E153030884
:10008000E1530308E1530308E1530308E153030874
:10009000E1530308E1530308E1530308B3FB0208EB
:1000A000E1530308E1530308E1530308E153030854
:1000B000E1530308E1530308E1530308E153030844
:1000C000E1530308E1530308E1530308E153030834
:1000D000E1530308E1530308E1530308E153030824
:1000E000E1530308E1530308E1530308E153030814
:1000F000E1530308E1530308E1530308E153030804
:10010000E1530308C5FB0208E1530308E153030868
:10011000E1530308E1530308E1530308E1530308E3
:1001200071FB0208E1530308E1530308E15303089C
:10013000E1530308E1530308E1530308E1530308C3
:10014000E1530308E1530308E1530308D5FB020818
:10015000E1530308E1530308E1530308E1530308A3
:10016000E1530308E1530308E1530308E153030893
:10017000E1530308E1530308E153030800000000C2
:08018000E5FB0208E15303084E
:1001880010F8012B11F8013B012A28BF9A42F7D039
:10019800D01A7047034613F8012B002AFBD1181A0E
:1001A8000138704753B94AB9002908BF00281CBF55
:1001B8004FF0FF314FF0FF3000F00CB8ADF1080CF4
:1001C8006DE904CE35F052FADDF804E0DDE90223EA
:1001D80004B07047704700BF0348044B834202D005
:1001E800034B03B118477047200300202003002069
:1001F8000000000005480649091A891001EBD17171
:10020800491002D0034B03B1184770472003002060
:10021800200300200000000010B5064C237843B9E5
:10022800FFF7DAFF044B13B10448AFF30080012352
:10023800237010BD2003002000000000445903086B
:1002480008B5054B1BB105490548AFF30080BDE86B
:100258000840FFF7CFBF00BF0000000024030020C4
:10026800445903082DE9F0418CB000240794089400
:1002780009940A940B940194564B1A6B42F010029D
:100288001A631A6B02F010020192019A02941A6B17
:1002980042F004021A631A6B02F004020292029AF4
:1002A80003941A6B42F080021A631A6B02F0800200
:1002B8000392039A04941A6B42F001021A631A6BB0
:1002C80002F001020492049A05941A6B42F00202A9
:1002D8001A631A6B02F002020592059A06941A6BC9
:1002E80042F008021A631B6B03F008030693069B8F
:1002F800394F0122C021384631F0EBFC374E2246F7
:10030800C321304631F0E5FC01224FF480513046DC
:1003180031F0DFFC18230793DFF8D080CDF8208078
:100328000125099507A92E4831F0E8FBC02307935A
:10033800089509940A9407A9384631F0DFFB202371
:100348000793284B0893099507A9274831F0D6FB4E
:10035800C12307930895099402270A9707A93046ED
:1003680031F0CCFB0797089509940A9407A9304601
:1003780031F0C4FB4FF480530793089509950A9709
:1003880007A9304631F0BAFB4FF480730793CDF8D4
:100398002080099507A9304631F0B0FB2246214656
:1003A800092031F011FF092031F042FF2246214691
:1003B8000A2031F009FF0A2031F03AFF0F221146D6
:1003C800172031F001FF172031F032FF0CB0BDE8E3
:1003D800F08100BF003802400000024000040240E3
:1003E8000010024000002110000802400000111017
:1003F80000B589B00022079213484FF020430360EC
:1004080003F5827343608260C26002611023436116
:100418008261C261026242624FF480538362C262A7
:10042800026342638263426401230193029303934C
:100438000523049305930223069301A931F0F0FFE5
:1004480009B05DF804FB00BF685B002008B50348ED
:10045800034B036032F00DF808BD00BF945C002028
:100468000008065010B50A4C0A4B2360002363604D
:10047800A360E36023614FF480426261A361204678
:1004880032F0A4FE4FF40061204632F0BFFE10BDEA
:10049800105C0020002C014008B50C480C4B036090
:1004A8004FF48273436000238360C3600361436138
:1004B8004FF4007282612022C26103624362836248
:1004C8000A23C36233F0B6F808BD00BFB05A002053
:1004D8000038004008B50B480B4B03604FF482739B
:1004E800436000238360C360036143614FF400727B
:1004F8008261C3610362436283620A23C36233F089
:1005080099F808BDB85B0020003C004030B595B0B4
:100518003022002108A834F0B1FF00240394049489
:1005280005940694079401941C4B1A6C42F080526F
:100538001A641B6C03F080530193019B0294184BBF
:100548001A6842F480421A601B6803F480430293DD
:10055800029B012308934FF48033099302250E95DB
:100568004FF480030F9304231093A823119312953B
:100578000723139308A830F0ABFF0F2303930495C8
:1005880005944FF4A05306934FF480530793052125
:1005980003A831F0FDF915B030BD00BF00380240A6
:1005A8000070004008B531F08DFEFFF7AFFFFFF790
:1005B80059FEFFF71DFFFFF749FFFFF753FFFFF74E
:1005C8006BFF2FF0A7F8FFF785FF1CF09BFF00F0EB
:1005D800CDF900F00FFC642031F0A0FE01F09CFD85
:1005E80022F0E4FE052031F099FEF9E7202801D039
:1005F80000BF704708B50349034800F013FB22F019
:10060800D5FE08BD3E0300203C03002070470000D3
:10061800014B1960704700BF9C530020FEE70000A3
:10062800014B1880704700BFFEFF076008B531F026
:1006380075FE08BD014B5880704700BFFEFF07607C
:10064800F8B507460D4616461C462A20FFF7E8FF70
:10065800380AFFF7EFFF3846FFF7ECFF300AFFF7DD
:10066800E9FF3046FFF7E6FF2B20FFF7D9FF280AFE
:10067800FFF7E0FF2846FFF7DDFF200AFFF7DAFF64
:100688002046FFF7D7FF2C20FFF7CAFFF8BD000070
:10069800F8B5194B1A6801321A601A68174B1B68AB
:1006A8009A4203DD164822F0B9FCF8BD0646154FFC
:1006B8003B68154D2A689B1A0133144C226802EBDB
:1006C8004303236028680C4B19683A681B68013398
:1006D8009BB292B289B280B2FFF7B2FF3B682A6838
:1006E8009B1A01330A4A12682168304631F0F4FB3C
:1006F8000028DAD0FEE700BFB0530020AC5300203A
:1007080068530020A4530020A05300204053002029
:1007180004000020F8B5B1F9005025EAE575B1F9F3
:10072800023023EAE373B1F9040040F23F14A04217
:10073800A8BF2046B1F90610EF29A8BFEF21124C37
:100748002560124D2B60124D286012480160124E30
:100758003360124F3A60206831682A683368013381
:100768009BB292B289B280B2FFF76AFF2B68226807
:100778009B1A01330A4A126839680A4831F0ACFBFF
:1007880000B1FEE7F8BD00BFA0530020A853002029
:10079800A4530020AC530020B05300204053002045
:1007A80004000020085B002010B5094C002202213B
:1007B800204631F08EFA0120FFF732FF4FF4FA702D
:1007C800FFF734FF01220221204631F082FA10BDE2
:1007D8000004024010B504463620FFF721FF01202F
:1007E800FFF724FF032C0DD8DFE804F0020D1823CF
:1007F8004820FFF71FFF144BF0221A80134B4FF4C9
:10080800A0721A8010BD2820FFF714FF0E4B4FF47A
:10081800A0721A800D4BF0221A80F3E78820FFF7A8
:1008280009FF094BF0221A80084B4FF4A0721A8076
:10083800E8E7E820FFF7FEFE034B4FF4A0721A80AA
:10084800024BF0221A80DDE70200002000000020A1
:1008580010B582B0002301931F4A116B41F4800147
:100868001163126B02F480020192019A1B481C4A20
:1008780002604360802282604FF40072C2604FF4CD
:10088800806202614FF4006242614FF4005282615B
:10089800C3614FF440320262042242628362C3623F
:1008A800036331F0B3FAA0B90C4C0E4A002120467C
:1008B80031F048FC0C4A0421204631F043FC002268
:1008C8001146382031F080FC382031F0B1FC02B0FC
:1008D80010BDFFF79BFEE7E700380240085B0020E9
:1008E80010640240990600082506000838B50A4D2C
:1008F8004FF4205300220949284622F01FFB084CD8
:10090800204622F0EDFA074BE360074BA3616560D0
:10091800204622F0D3FB38BD44530020400300207A
:10092800685300201D0700081906000870B5044622
:100938000B4D2A880B4E3388013B013A9BB292B289
:1009480000210846FFF77CFE3388298801FB03F164
:1009580000238B4203D2044A54800133F9E770BD67
:100968000200002000000020FEFF076008B5FFF726
:100978006FFFFFF719FFCB20FFF752FE3920FFF773
:1009880059FE2C20FFF756FE0020FFF753FE3420B7
:10099800FFF750FE0220FFF74DFECF20FFF740FE85
:1009A8000020FFF747FEC120FFF744FE3020FFF785
:1009B80041FEE820FFF734FE8520FFF73BFE0020CC
:1009C800FFF738FE7820FFF735FEEA20FFF728FE0C
:1009D8000020FFF72FFE0020FFF72CFEED20FFF789
:1009E8001FFE6420FFF726FE0320FFF723FE1220D8
:1009F800FFF720FE8120FFF71DFEF720FFF710FE0E
:100A08002020FFF717FEC020FFF70AFE2320FFF77C
:100A180011FEC120FFF704FE1020FFF70BFEC520D2
:100A2800FFF7FEFD3E20FFF705FE2820FFF702FE38
:100A3800C720FFF7F5FD8620FFF7FCFD3620FFF7FE
:100A4800EFFD4820FFF7F6FD3A20FFF7E9FD5520B6
:100A5800FFF7F0FDB120FFF7E3FD0020FFF7EAFD07
:100A68001820FFF7E7FDB620FFF7DAFD0820FFF7AB
:100A7800E1FD8220FFF7DEFD2720FFF7DBFDF220F6
:100A8800FFF7CEFD0020FFF7D5FD2620FFF7C8FDB4
:100A98000120FFF7CFFDE020FFF7C2FD0F20FFF791
:100AA800C9FD3120FFF7C6FD2B20FFF7C3FD0C2041
:100AB800FFF7C0FD0E20FFF7BDFD0820FFF7BAFDC8
:100AC8004E20FFF7B7FDF120FFF7B4FD3720FFF701
:100AD800B1FD0720FFF7AEFD1020FFF7ABFD0320A7
:100AE800FFF7A8FD0E20FFF7A5FD0920FFF7A2FDDF
:100AF8000020FFF79FFDE120FFF792FD0020FFF7A0
:100B080099FD0E20FFF796FD1420FFF793FD0320B3
:100B1800FFF790FD1120FFF78DFD0720FFF78AFDF5
:100B28003120FFF787FDC120FFF784FD4820FFF73C
:100B380081FD0820FFF77EFD0F20FFF77BFD0C20CD
:100B4800FFF778FD3120FFF775FD3620FFF772FDBE
:100B58000F20FFF76FFD1120FFF762FD7820FFF7E8
:100B680065FD2920FFF75CFD0320FFF733FE002019
:100B7800FFF7DCFEFFF7BAFE08BD000008B50E4B14
:100B880018680E4B03604FF4827343600023836040
:100B9800C360036143614FF4007282612822C2611D
:100BA8000362436283620A23C36232F043FD00B9E1
:100BB80008BDFFF72BFDFBE7B453002000380040C9
:100BC80008B500224FF48051014831F082F808BD81
:100BD8000004024008B501224FF48051014831F069
:100BE80078F808BD00040240014B1860704700BF48
:100BF800B453002008B5F0234FF4A0720021024836
:100C0800FFF7F2FF08BD00BFB853002008B5202148
:100C1800034831F057F8B0FA80F0400908BD00BF2A
:100C2800000802402DE9F04F9BB081468846594B99
:100C380001221A705822584B196804A834F010FC85
:100C4800FFF79CFFFFF7BCFF8021544831F047F8BD
:100C58000024264627460F2C38D8FFF7D7FF90B335
:100C68000134E4B24C4D4FF0FF3301224C4928685F
:100C780032F020FDDFF840B14FF0FF3ACDF800A088
:100C8800022302AA5946286832F0E2FD534601229F
:100C98004449286832F00EFDCDF800A0022303AACB
:100CA8005946286832F0D4FD9DF80C209DF80D3087
:100CB80043EA02231F449DF808209DF8093043EABF
:100CC80002231E44C7E7334B00221A70FFF782FF46
:100CD800314B1D68582204A9284634F0C1FB284628
:100CE80032F0A8FC68B90F2C51D93B0946F63F22CF
:100CF800974209D947F2F852934207D947F2F85375
:100D080004E0FFF783FCEEE740F2A463320946F6FD
:100D18003F218E4206D947F2C0618A4204D947F280
:100D2800C06201E040F2A46203EB83018B01A3F5EA
:100D38000423A3F550639B081B49A1FB03135B0A1B
:100D4800A9F80030C2EB02121301A3F5C723A3F5DB
:100D5800E073164AA2FB03231B0BA8F80030B9F86E
:100D68000030C3F5A073A9F80030B8F80030C3F11B
:100D7800F003A8F80030B9F800200D4B1A80B8F835
:100D880000200C4B1A8001201BB0BDE8F08F00201A
:100D9800FAE700BF10540020B453002000000240BE
:100DA8000C5A0308085A0308DB646512DB268924F9
:100DB8001254002014540020105A030810B50C4691
:100DC800FFF724FF10B9084B00221A70074BB3F93C
:100DD8000020074BB3F9003022806380024B1B7858
:100DE800A373002010BD00BF10540020125400202F
:100DF8001454002000B589B0FFF7FCFE01A807F0E5
:100E0800FFFD064B029301238DF8043001A807F07B
:100E18000BFE034B186009B05DF804FBC50D000814
:100E2800A45C0020102900D070472DE9F04385B05C
:100E38000AF020F901281FD04FF0020924F012FD12
:100E4800044624F015FD054624F0F4FC064624F07B
:100E5800F7FC074624F0FAFC804624F0FDFC0290DB
:100E6800CDF80480009733464A462946204606F0C6
:100E7800C5F905B0BDE8F0834FF00109DEE70000D1
:100E880038B50446072902D00E2935D038BD1C4B89
:100E98001B689BB1002120461AF0D8FF194B1D682A
:100EA80020461AF06FFC01220146284615F0B4FDD1
:100EB8002146134B186811F0EBFDE7E7124B1D684C
:100EC80022F04AF822F063F800EBD07040F34F01AB
:100ED80028461DF0C5FE22F03FF821F0ACFF0021A6
:100EE80011F02AFD064B186008491CF043FC07F076
:100EF800FFF907F0C4FACDE701211AF0A7FFC5E70B
:100F0800485500205455002060550020190F00084E
:100F180010B50C460D4B186811F0F0FD142C00D0DC
:100F280010BD0A4B1B68002BFAD0094B1C6822F035
:100F380013F822F02CF8014620461DF091FE034CD0
:100F480020681FF06BF800232360E9E7485500206C
:100F580060550020102900D0704770B582B0044653
:100F68000AF0DCF8012813D0022811D0204617F027
:100F7800C5FD124D0346124A1021284608F05AFAB8
:100F88002B467F22022120461EF0B5FC02B070BD20
:100F980020460AF08BF80646204617F0AFFD094DAB
:100FA80000903346084A2021284608F043FA2B4689
:100FB8007F22012120461EF09EFCE7E718540020FE
:100FC800D85B030828540020DC5B03082DE9F041B6
:100FD80082B0064615F0DAFB08210EF013FD00205A
:100FE80021F0F7FF002840F073814FF0010801223B
:100FF8004146304615F078FC074621F0ADFF21F058
:101008001AFF002114F062FC0446CD4914F02CFDAF
:10101800204614F01DFE802201210AF06FFE0021F7
:1010280030460EF06DFC044609210EF0EBFCC54A73
:10103800002120461EF0F4FB012120461CF05AFB3B
:10104800C14B7F22002120461EF055FC012500954A
:101058002B460022114620460EF0F4FC3946204665
:101068001DF0E6FD002120460AF0C4F80746009569
:101078002B46002211460EF0E5FC2A464146204642
:101088001DF0C8FF014638461DF0D2FD0021384644
:1010980012F096FFAD4D294612F0F4FD3946204670
:1010A8000AF0A8F807460AF073F90021384612F04A
:1010B80087FF294612F0E6FD0021204618F0A0F827
:1010C800002120460EF0E0F820461DF035FF0746C7
:1010D8000021204617F072FC05460022282109F05D
:1010E80099FE9B4928461CF045FB394628461DF0C9
:1010F80067FF002021F05FFF00EB800000EB80001D
:10110800EF2800F3E88001231522002128461EF06D
:10111800AAFB24F08FFB03467E22022128461EF0FC
:10112800EAFB002021F047FF00EB800000EB800085
:10113800EF2800F3E0804FF0FF334FF41D720221D7
:1011480028461EF090FB00237C22022128461EF030
:10115800BAFBFF234FF41F72022128461EF0B3FB8F
:101168004FF49673B022022128461EF07CFB7423AC
:10117800B622022128461EF076FB7C23B7220221E4
:1011880028461EF070FB2946204617F017FC054636
:10119800022109F04DFF00224621284609F03AFEB7
:1011A80000221E21284609F011FF002021F003FF2C
:1011B80000EB800000EB8000EF2800F3AC804FF0DC
:1011C800FF337422012128461EF04DFB24F032FB28
:1011D80003467E22012128461EF08DFBFF237C2238
:1011E800012128461EF06FFB594928461CF0C2FA17
:1011F8000022102128461CF025FB28461CF09CFCE8
:10120800B84200F39880214630460EF079FB064636
:10121800002400942346224621460EF013FC4D4B31
:101228007F22214630461EF066FB214630461AF0E2
:1012380005FF054600942346022211460EF002FCE3
:10124800DFF82881414628461BF02EFB42492846F4
:101258001AF0FEF9012128461AF062FE01212846FB
:101268001AF0F4FD3D4F394628461CF083FA29460A
:1012780030461AF0E3FE054601211BF0E3FB38492E
:1012880028461AF0E5F9214630461AF0D7FE0546F9
:1012980000942346022211460EF0D4FB414628460C
:1012A8001BF002FB2F4928461AF0D2F901212846E3
:1012B8001AF0CCFD394628461CF05CFA0221009150
:1012C80023460A4628460EF0BDFB02B0BDE8F08171
:1012D8004FF002088BE6002021F06DFE00EB800045
:1012E80000EB80005030204A82FB0032C317C3EB6A
:1012F800A2131BB208E7002021F05DFE00EB80007E
:1013080000EB80005030184A82FB0032C317A3EB71
:10131800A2131BB211E7002021F04DFE00EB800064
:1013280000EB80005030104A82FB0032C317A3EB59
:10133800A2131BB245E7394628461DF079FC62E73F
:10134800080000204C550020245A03082C5A030892
:101358005D0F0008345A0308405A0308890E000834
:10136800505A03085C5A030867666666E464030813
:10137800F0B583B0C568134C2768284609F0BAFE53
:10138800114E00903B46114A4021304608F052F871
:1013980033467F22002128461EF0ADFA0022B4F918
:1013A8000010284609F036FD2368013323602846DB
:1013B80009F0A0FE2368984201D20022226003B0FF
:1013C800F0BD00BF6455002048540020145A03089B
:1013D80070B582B004460E4689B208F06FFD0C4D18
:1013E80033460C4A4021284608F024F800212046BC
:1013F8001CF0F4FA0646294612F044FC002200923A
:101408001346214630461CF051FE02B070BD00BFA5
:1014180088540020D85B030870B582B004460E4695
:1014280013F0F8F80B4D33460B4A4021284608F0D4
:1014380001F8002120461CF0D1FA0646294612F090
:1014480021FC002200921346214630461CF02EFE55
:1014580002B070BDC8540020D85B030870B582B0D4
:1014680005460C460A46002110F064FA0D4E234644
:101478000D4A4021304607F0DDFF002128461CF0C8
:10148800ADFA0446314612F0FDFB20461CF03AFB4B
:10149800009000230222294620461CF007FE02B0D5
:1014A80070BD00BF08550020D85B03082DE9F04F38
:1014B80097B00446039015F069F908210EF0A2FAD6
:1014C800002021F086FD074601221146204615F02E
:1014D80024FA0546022F00F2E28201210122039C30
:1014E800204615F001FA0646002120460DF0CCF9F9
:1014F8000446EF4A00211EF093F9002F00F0D18234
:10150800012120461CF0F6F8EA4B7F2200212046F4
:101518001EF0F1F9314620461DF052FD29462046BD
:101528001DF063FD0022032120460DF001FB082178
:1015380020460DF007FD012120460DF0E7FC002FA5
:1015480040F0B9824FF016084FF0000168F304012B
:101558004FF0280B6BF34A116FF3CF2120460DF0A3
:1015680097FA06464FF0000168F304014FF0340A79
:101578006AF34A114FF0080969F3CF2120460DF0AC
:1015880087FA05460A22314620460DF073FD5A2295
:10159800314620460DF06EFD1E22314620460DF0E4
:1015A80069FD3C22314620460DF064FD0A22314691
:1015B80020460DF05FFD5A22314620460DF05AFDB7
:1015C8001E22314620460DF055FD3C22314620466C
:1015D8000DF050FD0A22314620460DF04BFD5A22EF
:1015E800314620460DF046FD2022294620460DF0C2
:1015F80041FD4222294620460DF03CFD05222946A0
:1016080020460DF037FD2F22294620460DF032FDE9
:101618002022294620460DF02DFD2022294620466D
:101628000DF028FD4222294620460DF023FD052213
:10163800294620460DF01EFD2F22294620460DF092
:1016480019FD4222294620460DF014FD052229469F
:1016580020460DF00FFD2F22294620460DF00AFDE9
:10166800214603980DF010F9044602210DF04EFCB6
:10167800914B7F22002120461EF03DF94FF00001DA
:1016880068F304016BF34A116FF3CF2120460DF084
:10169800FFF906464FF0000168F304016AF34A11A6
:1016A80069F3CF2120460DF0F3F905460A223146A9
:1016B80020460DF0DFFC5A22314620460DF0DAFCB8
:1016C8001E22314620460DF0D5FC3C2231462046EC
:1016D8000DF0D0FC0A22314620460DF0CBFC5A22F0
:1016E800314620460DF0C6FC1E22314620460DF03C
:1016F800C1FC3C22314620460DF0BCFC0A22314692
:1017080020460DF0B7FC5A22314620460DF0B2FCB7
:101718002022294620460DF0ADFC422229462046CB
:101728000DF0A8FC0522294620460DF0A3FC2F2227
:10173800294620460DF09EFC2022294620460DF021
:1017480099FC2022294620460DF094FC4222294685
:1017580020460DF08FFC0522294620460DF08AFC14
:101768002F22294620460DF085FC42222946204694
:101778000DF080FC0522294620460DF07BFC2F2227
:10178800294620460DF076FC002F00F0C381012F7A
:1017980040F2C78101220321039815F0A5F881467C
:1017A800039C204615F066F84845A8BF484605B290
:1017B80000210394204612F0BFFE064601211BF0CB
:1017C80099FF3221304612F025FF2A462946304635
:1017D8001DF0CAF9DFF8D8804246002130461EF0D5
:1017E8001FF8364B7F22002130461EF084F8002176
:1017F800304612F0E5FB8346002400942346224637
:1018080031461CF053FC24F027F8034648F28E02B8
:10181800214658461EF06FF805A823F03DFD0596B1
:10182800274B06930B940C9464230D934FF47A631F
:101838000E934FF47A7311934FF6FF7AADF84CA0DC
:1018480005A823F077FD2146039810F0AFF9064666
:1018580001211BF04FFF2A46294630461DF084F926
:101868004246214630461DF0DBFF164B7F222146BB
:1018780030461EF040F85946304612F0A1FB834628
:10188800114B83FB0923A3EBE9790FFA89F3009342
:101898002346224631461CF009FC05960B4B06935D
:1018A80005A823F047FD2146DDF80C9010E000BFA5
:1018B8004C550020945C0308D45C0308E45C0308DE
:1018C80021140008F05C03085655555565140008A6
:1018D800484608F047FC064601211BF00BFF4FF471
:1018E800B4722146304608F0CFFB4FF4877130467A
:1018F80008F0FAFB22462146304608F097FB2A46B4
:10190800294630461DF030F94246214630461DF042
:1019180087FFA84B7F22214630461DF0ECFF594631
:10192800304612F04DFB00942346224631461CF007
:10193800BDFB0596A04B06930B940C944FF4B4731F
:101948000D93ADF84CA005A823F0F4FC21464846B9
:101958000DF0D6FF064601230093224621460EF0DD
:1019680071F84246214630461DF05AFF934B7F22BC
:10197800214630461DF0BFFF002F00F0D980012F0F
:1019880040F2E08002220321039814F0ADFF0146E3
:1019980030461DF04DF90021304609F06DFA054634
:1019A80030461DF0C9FA014628461DF041F923F0DA
:1019B80041FF03467E22002128461DF09CFF0D238F
:1019C8007522002128461DF04EFF042374220021B1
:1019D80028461DF048FF0B231622002128461DF03B
:1019E80042FF0024009423462246214628461CF044
:1019F8005DFB214603980DF083FF044609210EF094
:101A080001F8002F00F0A880012F40F2AF800122DA
:101A18000321039814F068FF014620461DF008F9D9
:101A280030461CF09DF8014620461DF019F9644A1D
:101A3800002120461DF0F4FE012120461BF05AFE2D
:101A4800604B7F22002120461DF055FF00212046D3
:101A580012F0B0FC804620461DF090FA014602467E
:101A680040461DF081F8404612F032FD41462046BE
:101A780012F0A0FC8046BB2112F0FCFC4146204637
:101A880012F098FC12F012FD012F79D02B46022299
:101A980064214D4821F0DCFB17B0BDE8F08F02212E
:101AA8001CE523F0C7FE034648F28E0201212046BA
:101AB8001DF021FF24E520231222002120461DF0DD
:101AC800D2FE18231122002120461DF0CCFE10233F
:101AD8001322002120461DF0C6FE10231A460021BD
:101AE80020461DF0C0FE0022114620460DF05AF88F
:101AF8000022114620460DF03DF80123002233490B
:101B080020460DF08BF801230022314920460DF0C4
:101B180061F817E501221146039814F0E5FE8146A5
:101B28003EE601220221039814F0DEFE814637E6E4
:101B380001221146039814F0D7FE014630461DF0E5
:101B480077F828E701220221039814F0CDFE014618
:101B580030461DF06DF81EE701221146039814F077
:101B6800C3FE014620461DF063F859E70122022111
:101B7800039814F0B9FE014620461DF059F84FE7C6
:101B8800042120461BF0CCFD1522002120461DF023
:101B9800F3F887B21422402103981DF0EDF817FAE4
:101BA80080F000B2009000230D22314620461CF040
:101BB8007DFA6BE7F85C0308D9130008FC5C03089E
:101BC8004C550020005D030879130008A05C030849
:101BD800B45C0308062900D0704710B582B00446EB
:101BE8000DF1060201A918F0CFFB012801D002B0BF
:101BF80010BDBDF80620002AF9D0BDF80410002950
:101C0800F5D0204618F096FB012808D00123BDF82E
:101C18000620BDF80410204618F024FBE7E704234B
:101C2800BDF80620BDF80410204618F01BFBDEE7BF
:101C38002DE9F04F9BB0074614F0A8FD09210DF0DF
:101C4800E1FE002021F0C5F906460122114638467A
:101C580014F063FE8146002E40F0AF800122114649
:101C6800384614F041FE8046002138460BF07CF9D6
:101C7800824601211BF03EFD012E40F2A58041461F
:101C8800C845A8BF494609B20A4650461CF06CFF31
:101C9800002138460DF034FE044601211BF02AFDD0
:101CA800002E00F0A380012E40F2B38000212046D0
:101CB8001BF0BAFC00232C22194620461DF003FE17
:101CC80000233C22194620461DF0FDFD0023122268
:101CD800194620461DF0C7FD002313221946204649
:101CE8001DF0C1FD00231022194620461DF0BBFD42
:101CF8004146C845A8BF494609B20A4620461CF0D5
:101D080033FF082120460DF07DFE0021204616F005
:101D1800E5FB0546CC4A00211DF082FDCB4B7F2216
:101D2800002128461DF0E7FD0021284616F0DCFCBE
:101D38000121284616F0BEFC0421284615F0BAFFFA
:101D4800002E77D14FF0010B0122594620461DF095
:101D580061F9014628461CF06BFF002120460EF071
:101D6800EDFC0546B84A00211DF05AFDB84B7F220C
:101D7800002128461DF0BFFD0122594620461DF0CE
:101D880049F9014628461CF053FFB24928460EF08F
:101D980029FC0021384613F07DFB0546012114F08B
:101DA800B9FC4A46414628461CF0DEFE5C22AA4998
:101DB80003A833F055FB002444E0012202213846F1
:101DC80014F092FD80464FE74246414650461CF0CB
:101DD800CBFE002E7FF45CAF23F02CFD034648F2C7
:101DE8008E02002150461DF086FD51E70123009325
:101DF8000022114620460DF025FE384614F000FD5D
:101E0800014620461CF014FF032120460DF0FAFD80
:101E18007BE750461BF090FE054650461BF0A0FE9F
:101E28000246294620461CF09FFE082120460DF058
:101E3800E9FD6AE74FF0020B86E70221584609F0F0
:101E48005FFA02341AAB03EB840353F85C1C79B1D4
:101E5800631C1AAA02EB830353F85C2C284613F080
:101E680021FA8346012109F035FA042CE9D1E4E787
:101E780002227A4950460BF02BF9DFF824A250468B
:101E88001FF076FE7F222C21504620F0B1F9724BCC
:101E9800B3F85C202921504620F0ECF800213846A0
:101EA80014F04AFB04464A4641461CF05DFE2046B3
:101EB80014F0A6FC05460121204614F02BFC002155
:101EC800204618F021F90446524604211DF0A8FCCA
:101ED800002120461BF0BCFE012120461BF00AFC15
:101EE8005F4920461BF046FC002E00F0828003214B
:101EF800204618F0C1F8002E00F08180952D7ADD7B
:101F0800584B83FB0523EA17C2EB630212B2002188
:101F1800204618F089F96D00B5F5967F6DDB514BB9
:101F280083FB0523ED17C5EB63052DB22A46012176
:101F3800204618F079F92A460221204618F074F94B
:101F4800494B00221146204618F01CF8474B002246
:101F58000121204618F016F8454B002202212046A0
:101F680018F010F8434B00220321204618F00AF815
:101F7800414B00220421204618F004F83F4B002270
:101F88000521204617F0FEFF3D4B00220621204682
:101F980017F0F8FF3B4B01220021204617F0F2FF13
:101FA800394B01221146204617F0ECFF374B01222E
:101FB8000221204617F0E6FF354B01220321204677
:101FC80017F0E0FF334B01220421204617F0DAFF17
:101FD800314B01220521204617F0D4FF2F4B012257
:101FE8000621204617F0CEFF002E5BD11BB0BDE8BE
:101FF800F08F02217CE71E2289E73C2596E77B2D9E
:102008001BDD2B46002D16DBC3F38F02013A12B2FB
:102018000021204618F008F905EB4505F32D10DDE1
:102028002B46002D0BDB9A10013A12B201212046F3
:1020380018F0FAF884E7EB1CE6E71E22E8E7EB1C49
:10204800F1E73C22F2E700BF4C5500208C5A030808
:10205800945A0308A05A03085C5903081400002086
:10206800DD1B000867666666485B03084C5B03086F
:10207800505B0308545B0308585B03085C5B030868
:10208800605B0308645B03086C5B0308745B03080C
:102098007C5B0308845B03088C5B0308945B030880
:1020A80050550020154B02220021204617F06AFFE8
:1020B800134B02220121204617F064FF114B022224
:1020C8001146204617F05EFF0F4B022203212046DF
:1020D80017F058FF0D4B02220421204617F052FF3B
:1020E8000B4B02220521204617F04CFF094B022218
:1020F8000621204617F046FF78E700BF9C5B0308DF
:10210800A45B0308AC5B0308B85B0308C05B030867
:10211800C85B0308D05B030838B520F01DFF20F02A
:102128008AFE002118F0D0FF6B4B1860002020F0C9
:1021380050FF002845D1684C6849206818F0DEFE39
:10214800674B18606749206818F0D8FE664B18601E
:102158006649206818F0D2FE654B1860654C204629
:102168001FF006FD0922752120461FF0C5FE00203C
:1021780020F021FF00EB80004300EF2B00F38D805F
:102188004FF0FF3274215B481FF0B6FE002020F0AC
:1021980012FFC0EB00104300EF2B00F38D800122EB
:1021A800152154481FF0A8FE4D4B1868FEF70EFF86
:1021B8004D4B1868FFF77AF94D4B1868FFF738FD53
:1021C80038BD454B1C6820F0C7FE20F0CBFE00EB65
:1021D800D07040F34F031222412120461DF043FBEB
:1021E80020F0BAFE20F027FE002117F009F8044677
:1021F80023F044FB10F0010F2CD13F4920461BF07F
:10220800B9FA002020F0D7FE00EB80004300EF2B46
:1022180025DC0125002020F0CEFE00EB80004300E5
:10222800EF2B2BDC0122294620461BF07FFE334B87
:102238007F22002120461DF05EFB1323752200211A
:1022480020461DF010FB02237322002120461DF0BA
:102258000AFB70E70021204617F078F8CDE7002048
:1022680020F0A9FE00EB800043005033244D85FB8D
:102278000325DB17C3EBA5152DB2CBE7002020F013
:102288009AFE00EB8000430050331D4A82FB031284
:10229800DB17C3EBA21212B2C5E7002020F08BFEB9
:1022A80000EB800042005032154B83FB0213D2171B
:1022B800A2EBA31212B265E7002020F07CFEC0EB6F
:1022C8000010420050320E4B83FB0213D217C2EBB0
:1022D800A31212B264E700BF605500206C5A0308CD
:1022E80054550020785A030858550020805A03088E
:1022F8005C5500204C5500202D0E0008645A030838
:102308006766666670B50C46013A272A31D8DFE859
:1023180012F028003600BB008F004A005400FD026E
:1023280030001801370240001F0304024103300047
:1023380030007200300052013000E201FA0131032E
:1023480030014001DD015C01C501F800D502ED0254
:10235800E600A1006A027E019F01AD02A901820286
:10236800A302002120461BF021FCCB4B19681FF06B
:1023780063FCFF22114620461DF0E0F970BD0021E4
:1023880020461BF013FCC44B196804311FF054FCA1
:10239800EFE7002120461BF009FCBF4B1968043108
:1023A8001FF04AFCE5E7002120461BF0FFFBBA4B73
:1023B800196810311FF040FCDBE7002120461BF0B4
:1023C800F5FB0646B44D296804311FF035FC296831
:1023D800183130461FF030FC012120461BF0E6FB87
:1023E8000646296804311FF027FC29680831304661
:1023F8001FF022FCBDE7002120461BF0D7FB064654
:10240800A54D29681FF018FC29686C3130461FF06B
:1024180013FC012120461BF0C9FB0646296804313C
:102428001FF00AFC2968083130461FF005FCA0E7B8
:10243800002120461BF0BAFB974D296828311FF070
:10244800FBFB012120461BF0B1FB29682C311FF052
:10245800F3FB8EE7002120461BF0A8FB8E4D296870
:1024680028311FF0E9FB012120461BF09FFB29685A
:102478002C311FF0E1FB022120461BF097FB296855
:10248800A0311FF0D9FB74E7002120461BF08EFB1A
:102498000646814D296804311FF0CEFB296820319A
:1024A80030461FF0C9FB012120461BF07FFB29683D
:1024B8001C311FF0C1FB022120461BF077FB0646AA
:1024C800296804311FF0B8FB2968083130461FF02D
:1024D800B3FB2968243130461FF0AEFB49E70021E1
:1024E80020461BF063FB6C4D296820311FF0A4FBCC
:1024F800012120461BF05AFB29681C311FF09CFB68
:1025080037E7002120461BF051FB0646624D29683B
:1025180028311FF091FB2968983130461FF08CFB59
:10252800012120461BF042FB29682C311FF084FB57
:10253800022120461BF03AFB296894311FF07CFBEE
:1025480017E7002120461BF031FB534D2968503115
:102558001FF072FB402120461BF028FB0646296825
:1025680010311FF069FB2968543130461FF064FBB5
:10257800FFE6002120461BF019FB0646464D296858
:1025880004311FF059FB2968803130461FF054FB95
:10259800EFE6402120461BF009FB3F4D2968183122
:1025A8001FF04AFB412120461BF000FB296810312F
:1025B8001FF042FBDDE6002120461BF0F7FA364B00
:1025C800196870311FF038FBD3E6002120461BF054
:1025D800EDFA314D296804311FF02EFB40212046C9
:1025E8001BF0E4FA296814311FF026FB012120466C
:1025F8001BF0DCFA296884311FF01EFB02212046FB
:102608001BF0D4FA296888311FF016FBB1E60021C7
:1026180020461BF0CBFA204D29681FF00DFB412105
:1026280020461BF0C3FA2968AC311FF005FB432193
:1026380020461BF0BBFA2968B0311FF0FDFA422191
:1026480020461BF0B3FA2968A8311FF0F5FA90E686
:10265800402120461BF0AAFA0F4B1968B4311FF02D
:10266800EBFA86E6002120461BF0A0FA0A4D2968FD
:102678001FF0E2FA012120461BF098FA29688431FC
:102688001FF0DAFA022120461BF090FA29688831F7
:102698001FF0D2FA6DE600BF6C55002000212046DD
:1026A8001BF084FA0646CB4D296804311FF0C4FAA2
:1026B80029688C3130461FF0BFFA032120461BF0F1
:1026C80075FA296890311FF0B7FA52E600212046C2
:1026D8001BF06CFA4DE6002120461BF067FA06460F
:1026E800BC4D296804311FF0A7FA296878313046B3
:1026F8001FF0A2FA012120461BF058FA29688431FC
:102708001FF09AFA35E6002120461BF04FFAB14B2C
:1027180019687C311FF090FA2BE6002120461BF047
:1027280045FA0646AB4D296804311FF085FA296839
:10273800083130461FF080FA2968183130461FF0FA
:102748007BFA402120461BF031FA064629680431FD
:102758001FF072FA2968583130461FF06DFA41218E
:1027680020461BF023FA296884311FF065FA4221BC
:1027780020461BF01BFA29685C311FF05DFAF8E56A
:10278800002120461BF012FA0646924D29680431B2
:102798001FF052FA2968443130461FF04DFA296873
:1027A800183130461FF048FA012120461BF0FEF987
:1027B8000646296818311FF03FFA29684831304623
:1027C8001FF03AFA032120461BF0F0F92968483136
:1027D8001FF032FA022120461BF0E8F929684C3133
:1027E8001FF02AFAC5E5002120461BF0DFF9794BD6
:1027F800196804311FF020FA012509E0E9B22046E2
:102808001BF0D4F9734B1968A4311FF015FA013580
:10281800042DF3DDADE5002120461BF0C7F96D4D11
:1028280029681FF009FA422120461BF0BFF92968E0
:1028380084311FF001FA412120461BF0B7F92968BD
:10284800B4311FF0F9F9402120461BF0AFF929688F
:10285800AC311FF0F1F98CE5002120461BF0A6F9F8
:102868005C4B1968A8311FF0E7F982E50021204682
:102878001BF09CF90646574D296804311FF0DCF916
:102888002968183130461FF0D7F9042120461BF07B
:102898008DF92968BC311FF0CFF9032120461BF0C0
:1028A80085F92968B8311FF0C7F9012120461BF0C6
:1028B8007DF9296884311FF0BFF95AE500212046C7
:1028C8001BF074F90646434D296804311FF0B4F92A
:1028D8002968183130461FF0AFF9032120461BF054
:1028E80065F929689C311FF0A7F942E500212046C7
:1028F8001BF05CF90646374D296804311FF09CF936
:102908002968083130461FF097F932E50021204642
:102918001BF04CF92F4D296804311FF08DF9032164
:1029280020461BF043F9296830311FF085F9012151
:1029380020461BF03BF9296834311FF07DF902214C
:1029480020461BF033F9296838311FF075F910E576
:10295800002120461BF02AF91E4D29683C311FF042
:102968006BF9012120461BF021F9296840311FF03D
:1029780063F9FEE4002120461BF018F90646154DC0
:10298800296804311FF058F92968743130461FF05E
:1029980053F9EEE4002120461BF008F906460D4DD8
:1029A800296804311FF048F92968603130461FF062
:1029B80043F9012120461BF0F9F8296864311FF01A
:1029C8003BF9022120461BF0F1F8296868311FF015
:1029D80033F9CEE46C55002008B5044B1B7813B1CD
:1029E8001FF0B6F908BD1FF0C3F8FBE768550020D3
:1029F80038B56A4C20682830FFF7EEFF206847F6A4
:102A0800FF72012128301FF077FA2068FF222C215D
:102A180028301FF0EDFB20682830614B1B6A13F04B
:102A2800020F00F096804FF000021B2363F30402AC
:102A3800352363F34A121A2363F3CF2229211FF0A7
:102A480019FB564B18682830554B1B6A13F0020FB8
:102A580000F08B804FF00002092363F30402102377
:102A680063F34A12062363F3CF2279211FF002FB96
:102A78004A4C20684A4DAA89492128301FF0FAFAA1
:102A88002068EA8940F2494128301FF0F3FA2068AB
:102A980000224C2128301FF0ABFB20687F224FF426
:102AA800137128301FF0A4FB246828342B6A13F014
:102AB800200F5DD00022402120461FF01DFA374C20
:102AC80020680022B02128301FF016FA20684C2216
:102AD800B72128301FF010FA20682C30FFF77CFF50
:102AE8002068FF222C2108441FF082FB206847F64B
:102AF800FF7201212C301FF0FFF92068284DAA89A8
:102B080029212C301FF0B6FA206811234FF000025B
:102B180063F30402222161F34A1263F3CF2242F2E3
:102B280029012C301FF0A6FA20682C302B6A13F0EC
:102B3800020F30D04FF00002092363F30402102380
:102B480063F34A12082363F3CF2279211FF092FA24
:102B580038BD4FF00002092363F30402122363F324
:102B68004A12082363F3CF2268E70E4B1A887CE7E2
:102B7800002020F020FA772801DC01229BE70020C2
:102B880020F019FA2830084B83FB0023C217C2EB48
:102B9800631212B28FE7034B1A88D6E76C550020F0
:102BA80070550020BC5903086766666610B5984CD6
:102BB80020689430FFF710FF2068FF222C21943002
:102BC8001FF016FB20689430924B1B6A13F0020F1B
:102BD80000F0A4808F4B9A8929211FF04BFA8C4B67
:102BE800186894308B4B1B6A13F0020F00F0998021
:102BF8004FF00002092363F30402102363F34A121F
:102C0800062363F3CF2279211FF034FA804C206821
:102C180047F6FF72012194301FF06EF9246894344E
:102C2800002020F0C8F9C0EBC000EF287CDC0122AE
:102C3800122120461FF060F9754B1C68943400205F
:102C480020F0B9F9C0EBC000EF287BDC012213218A
:102C580020461FF051F96E4B1C689434002020F078
:102C6800AAF9C0EBC000EF287ADC01221021204627
:102C78001FF042F9664B1C689434002020F09BF941
:102C8800C0EBC000EF2879DC0122112120461FF09B
:102C980033F95F4C20689830FFF79EFE246898341B
:102CA800002020F088F900EB80004000EF2873DC5A
:102CB8000122172120461FF01FF9554B1C68983434
:102CC800002020F078F900EB80004000EF2872DC4B
:102CD8000122182120461FF00FF94D4B1C6898342B
:102CE800002020F068F900EB80004000EF2871DC3C
:102CF8000122152120461FF0FFF8454B1C68983427
:102D0800002020F058F900EB80004000EF2870DC2C
:102D18000122162120461FF0EFF810BD3E4B1A88FD
:102D28005AE73D4B1A886EE7002020F044F9C0EBC3
:102D3800C0005030394B83FB0023C217C2EBA312EB
:102D480012B275E7002020F036F9C0EBC000503011
:102D5800324B83FB0023C217C2EBA31212B276E7F1
:102D6800002020F028F9C0EBC00050302B4B83FB2B
:102D78000023C217C2EBA31212B277E7002020F09B
:102D88001AF9C0EBC0005030244B83FB0023C21754
:102D9800C2EBA31212B278E7002020F00CF900EB86
:102DA8008000400050301D4B83FB0023C217C2EB4C
:102DB800A31212B27DE7002020F0FDF800EB80009E
:102DC80040005030154B83FB0023C217C2EBA312FF
:102DD80012B27EE7002020F0EEF800EB8000400001
:102DE80050300E4B83FB0023C217C2EBA31212B262
:102DF8007FE7002020F0DFF800EB80004000503033
:102E0800064B83FB0023C217C2EBA31212B280E762
:102E18006C55002070550020BC590308676666662B
:102E280010B5404C2068A030FFF7D6FD2068FF227F
:102E38002C21A0301FF0DCF920683B4B1A8829218F
:102E4800A0301FF017F9206847F6FF720121A03063
:102E58001FF052F82468A034002020F0ACF83B287A
:102E680030DC4FF0FF32102120461FF045F82D4B83
:102E78001C68A034002020F09EF83B282EDC4FF080
:102E8800FF32112120461FF037F8264B1C68A0346A
:102E9800002020F090F83B282CDC4FF0FF32122164
:102EA80020461FF029F81F4B1C68A034002020F092
:102EB80082F83B282ADC4FF0FF32132120461FF00E
:102EC8001BF810BD002020F076F81430174B83FB58
:102ED8000023C217A2EB231212B2C4E7002020F08D
:102EE8006AF81430114B83FB0023C217A2EB23129C
:102EF80012B2C6E7002020F05EF814300B4B83FBBB
:102F08000023C217A2EB231212B2C8E7002020F058
:102F180052F81430054B83FB0023C217A2EB23128F
:102F280012B2CAE76C550020BC590308676666668A
:102F380038B5814C20687430FFF74EFD206847F69D
:102F4800FF72012174301EF0D7FF2468743400200A
:102F580020F031F800EB80008000EF2800F3838038
:102F68000122122120461EF0C7FF734B1C687434DF
:102F7800002020F020F800EB80008000EF2800F30C
:102F880081800122132120461EF0B6FF6A4B1C687F
:102F98007434002020F00FF800EB80008000EF2848
:102FA8007FDC0122102120461EF0A6FF624B1C6820
:102FB800743400201FF0FFFFC0EB00104000EF2822
:102FC8007EDC0122142120461EF096FF5A4B1C6815
:102FD800743400201FF0EFFF00EB800000EB80004E
:102FE800EF287CDC0122C02120461EF085FF524CD0
:102FF8002068524DAA89992174301FF03BF8206847
:10300800AA89C92174301FF035F8206811234FF0C0
:10301800000263F30402222161F34A1263F3CF2210
:10302800CA2174301FF026F82468743400201FF079
:10303800C2FF00EB80004000EF2860DC01229021F5
:1030480020461EF059FF3C4B1C68743400201FF0CA
:10305800B2FFC0EBC000EF2860DC0122C32120468C
:103068001EF04AFF38BD00201FF0A5FF00EB8000CE
:1030780080005030324B83FB0023C217C2EBA312EF
:1030880012B26EE700201FF096FF00EB8000800070
:1030980050302B4B83FB0023C217C2EBA31212B292
:1030A80070E700201FF087FF00EB800080005030A1
:1030B800234B83FB0023C217C2EBA31212B271E7A2
:1030C80000201FF078FFC0EB0010400050301C4B70
:1030D80083FB0023C217C2EBA31212B272E70020CF
:1030E8001FF069FF00EB800000EB80005030144BAC
:1030F80083FB0023C217C2EBA31212B273E70020AE
:103108001FF059FF00EB8000400050300C4B83FB50
:103118000023C217C2EBA31212B290E700201FF0DF
:103128004AFFC0EBC0005030054B83FB0023C21799
:10313800C2EBA31212B291E76C5500207055002023
:103148006766666670B5DB4C20686030FFF744FC44
:10315800206811254FF0000265F30402222666F369
:103168004A1265F3CF22992160301EF083FF206850
:103178004FF0000265F3040266F34A1265F3CF22AA
:10318800C92160301EF076FF2068CB4B9A89CA218E
:1031980060301EF06FFF2468603400201FF00BFFC2
:1031A80000EB8000EF2800F34181012290212046A6
:1031B8001EF0A2FEBF4B1C68603400201FF0FBFE0F
:1031C8003B2800F341810122C32120461EF094FED2
:1031D800B84B1C68603400201FF0EDFE1D2800F37A
:1031E8003F810122C22120461EF086FEB14B1C6899
:1031F800603400201FF0DFFE00EB80008000EF2825
:1032080000F33A810122122120461EF075FEA94BD7
:103218001C68603400201FF0CEFE00EB80008000A8
:10322800EF2800F338810122132120461EF064FEA6
:10323800A04B1C68603400201FF0BDFE00EB80002E
:103248008000EF2800F33C810122102120461EF067
:1032580053FE984B1C68603400201FF0ACFE00EB56
:1032680080008000EF2800F33A81012214212046D3
:103278001EF042FE8F4B1C68603400201FF09BFE3E
:10328800C0EB0010EF2800F339810122C02120464D
:103298001EF032FE874C206847F6FF72012160302D
:1032A8001EF02AFE20686430FFF796FB206811257F
:1032B8004FF0000265F30402222666F34A1265F312
:1032C800CF22992164301EF0D5FE20684FF000020D
:1032D80065F3040266F34A1265F3CF22C92164300C
:1032E8001EF0C8FE2068744B9A89CA2164301EF00B
:1032F800C1FE2468643400201FF05DFE1D2800F321
:103308000B810122902120461EF0F6FD694B1C68B6
:10331800643400201FF04FFE1D2800F309810122AC
:10332800C32120461EF0E8FD624B1C68643400206F
:103338001FF041FE00EB800000EB8000EF2800F357
:1033480003810122C02120461EF0D6FD594C206879
:103358006830FFF741FB20686830574B1B6A13F051
:10336800020F00F001814FF000020B2363F3040207
:10337800122363F34A12082363F3CF2299211EF024
:1033880079FE4C4B1C68683400201FF014FE1D2881
:1033980000F3ED800122902120461EF0ADFD454C42
:1033A8002068FF222C2168301EF022FF2068683038
:1033B800414B1B6A13F0020F00F0E5804FF000024A
:1033C8000B2363F30402122363F34A12082363F303
:1033D800CF2229211EF04EFE364C206847F6FF7298
:1033E800012168301EF088FD2468683400201FF031
:1033F800E2FDC0EB00104000EF2800F3C780012277
:10340800032120461EF078FD2A4B1C6868340020F2
:103418001FF0D1FD00EB80004000EF2800F3C580CD
:103428000122142120461EF067FD70BD00201FF008
:10343800C2FD00EB80005030204B83FB0023C217F5
:10344800C2EBA31212B2B1E600201FF0B4FD143093
:103458001A4B83FB0023C217C2EB231212B2B3E646
:1034680000201FF0A8FD0A30144B83FB0023C2176D
:10347800C2EBE30212B2B5E600201FF09CFD00EBA0
:103488008000800050300D4B83FB0023C217C2EB35
:10349800A31212B2B7E600201FF08DFD00EB8000EA
:1034A80080005030054B83FB0023C217C2EBA312E8
:1034B80012B2B9E66C550020705500206766666642
:1034C80000201FF078FD00EB8000800050303E4B5C
:1034D80083FB0023C217C2EBA31212B2B5E6002089
:1034E8001FF069FD00EB800080005030364B83FBF5
:1034F8000023C217C2EBA31212B2B7E600201FF0D6
:103508005AFDC0EB001050302F4B83FB0023C2172D
:10351800C2EBA31212B2B9E600201FF04CFD0A302C
:10352800294B83FB0023C217C2EBE30212B2E9E680
:1035380000201FF040FD0A30234B83FB0023C217F5
:10354800C2EBE30212B2EBE600201FF034FD00EB01
:10355800800000EB800050301B4B83FB0023C21718
:10356800C2EBA31212B2EDE6184B1A8806E7002048
:103578001FF021FD0A30144B83FB0023C217C2EB56
:10358800E30212B207E7114B1A8822E700201FF066
:1035980012FDC0EB0010400050300B4B83FB0023A2
:1035A800C217C2EBA31212B22AE700201FF003FDD4
:1035B80000EB800040005030034B83FB0023C21710
:1035C800C2EBA31212B22CE767666666BC59030801
:1035D80010B5524C20681C30FFF7FEF92068504B9C
:1035E8009A8999211C301EF045FD24681C3400205E
:1035F8001FF0E1FC00EB800000EB8000EF2860DCAE
:103608000122902120461EF077FC444C20680122BC
:1036180094211C301EF070FC20682030FFF7DCF984
:10362800206820303E4B1B6A13F0020F59D04FF030
:1036380000021B2363F30402352363F34A121A239F
:1036480063F3CF2299211EF015FD344B1C682034FA
:1036580000201FF0B0FC00EB800000EB8000EF289A
:103668004BDC0122902120461EF046FC2B4C2068A2
:103678000122942120301EF03FFC20682430FFF7FF
:10368800ABF9206847F6FF72012124301EF034FCA4
:1036980020680022102124301EF02EFC2068002211
:1036A800112124301EF028FC206800221221243029
:1036B8001EF022FC20680022132124301EF01CFC7E
:1036C80010BD00201FF077FC00EB800000EB8000AD
:1036D8005030144B83FB0023C217C2EBA31212B263
:1036E8008FE74FF00002092363F30402122363F308
:1036F8004A12082363F3CF22A4E700201FF05BFCE3
:1037080000EB800000EB80005030064B83FB002369
:10371800C217C2EBA31212B2A4E700BF6C55002077
:10372800705500206766666610B5894C206844307D
:10373800FFF752F920684430864B1B6A13F0020FDA
:1037480000F0918015234FF0000263F304022A2150
:1037580061F34A1263F3CF2248F289011EF08AFC12
:103768007B4C20684830FFF737F92468483400203C
:103778001FF021FCEF2800F38280012290212046CF
:103788001EF0BAFB724B1C68483400201FF013FC73
:1037980000EB80004000EF287DDC012292212046CA
:1037A8001EF0AAFB6A4B1C68483400201FF003FC7B
:1037B80000EB80004000EF287CDC012293212046AA
:1037C8001EF09AFB624B18684830624B1B6A13F074
:1037D800020F7ED04FF000021C2363F3040237234C
:1037E80063F34A121A2363F3CF2299211EF042FC95
:1037F800574C20684C30FFF7EFF824684C34002011
:103808001FF0D9FB00EB4000EF286EDC012290216D
:1038180020461EF071FB4E4B1C684C3400201FF0F4
:10382800CAFB3B286FDC0122032120461EF064FB03
:10383800474B1C684C3400201FF0BDFB77286EDC1A
:103848000122142120461EF057FB414B1C684C34C2
:1038580000201FF0B0FBEF286DDC0122012120467B
:103868001EF04AFB10BD4FF00002172363F3040259
:103878002B2363F34A12142363F3CF226CE700204F
:103888001FF099FB5030344B83FB0023C217C2EB67
:10389800A31212B272E700201FF08DFB00EB80002C
:1038A800400050302C4B83FB0023C217C2EBA312FD
:1038B80012B273E700201FF07EFB00EB800040008F
:1038C8005030254B83FB0023C217C2EBA31212B260
:1038D80074E74FF00002122363F30402222363F318
:1038E8004A12102363F3CF227FE700201FF063FB07
:1038F80000EB40005030184B83FB0023C217C2EB8B
:10390800A31212B283E700201FF055FB1430124BAC
:1039180083FB0023C217C2EB231212B284E70020F4
:103928001FF049FB28300C4B83FB0023C217C2EB66
:10393800631212B285E700201FF03DFB5030064BA2
:1039480083FB0023C217C2EBA31212B286E700BFA3
:103958006C550020705500206766666638B5DD4CEA
:1039680020683430FFF738F82068002210213430FE
:103978001EF0C2FA2468343400201FF02AFB012804
:1039880040F2BF8100201FF016FBC0EB0010400082
:10399800EF2800F3CD810122122120461EF0ACFA57
:1039A800CC4B1C68343400201FF013FB012840F274
:1039B800CE8100201FF0FFFAC0EB00104000EF2876
:1039C80000F3DC810122132120461EF095FAC14C38
:1039D80020680022112134301EF08EFA2468343415
:1039E80000201FF0F6FA012840F2D78100201FF0CE
:1039F800E2FAC0EB00104000EF2800F3E581012255
:103A0800152120461EF078FAB24B1C683434002089
:103A18001FF0DFFA012840F2E68100201FF0CBFA00
:103A2800C0EB00104000EF2800F3F48101221621BA
:103A380020461EF061FAA74B18683430A64B1B6A63
:103A480013F0020F00F0F58111234FF0000263F329
:103A58000402222161F34A1263F3CF2249F2890159
:103A68001EF008FB9B4C20683830FEF7B5FF206835
:103A78003830994B1B6A13F0020F00F0DD814FF0CC
:103A88000002092363F30402102363F34A12062396
:103A980063F3CF2248F289011EF0ECFA8D4B1C68C3
:103AA800383400201FF095FA012840F2D081002018
:103AB8001FF081FAC0EB00104000EF2800F3DE8110
:103AC8000122122120461EF017FA824B1C68383456
:103AD80000201FF07EFA012840F2DF8100201FF04D
:103AE8006AFAC0EB00104000EF2800F3ED810122D4
:103AF800132120461EF000FA764B1C68383400204B
:103B08001FF067FA012840F2EE8100201FF053FAF7
:103B1800C0EB00104000EF2800F3FC8101221121C6
:103B280020461EF0E9F96B4C20683030FEF754FF50
:103B38002468303400201FF03EFA3B2800F3F98156
:103B48000122012120461EF0D7F9624B1868303057
:103B5800614B1B6A13F0020F00F0F7814FF000026F
:103B6800092363F30402102363F34A12062363F361
:103B7800CF2248F289111EF07DFA564C2068574B27
:103B88009A884AF2890130301EF074FA2068303081
:103B9800514B1B6A13F0020F00F0DA8133224FF405
:103BA80096711EF025FB4B4C2068332241F22C0104
:103BB80030301EF01DFB2068FF224FF40B713030AF
:103BC8001EF016FB2068454B1A8848F289213030D0
:103BD8001EF050FA2068404DAA8940F22921303061
:103BE8001EF048FA206830302B6A13F0020F00F0FC
:103BF800B1810C234FF0000263F30402192161F331
:103C08004A1263F3CF2229211EF034FA314C20687E
:103C1800314DAA8940F2291130301EF02BFA206864
:103C280002224FF4987130301EF066F920680422A1
:103C380040F2311130301EF05FF92068AA8940F255
:103C4800391130301EF016FA2468303400201FF085
:103C5800B2F900EB4000EF2800F37F810122142124
:103C680020461EF049F91B4B1C68303400201FF019
:103C7800B0F9012840F27F8100201FF09CF9C0EBC9
:103C880000104000EF2800F38D8101221221204608
:103C98001EF032F90F4B1C68303400201FF099F9E0
:103CA800012840F28E8100201FF085F9C0EB00103A
:103CB8004000EF2800F39C810122132120461EF0CA
:103CC8001BF9044B1C68303400201FF082F90128CE
:103CD80006E000BF6C55002070550020BC59030851
:103CE80040F2958100201FF066F9C0EB00104000FB
:103CF800EF2800F3A3810122112120461EF0FCF8D1
:103D080038BD00201FF057F9C0EB0010EF2801DC88
:103D1800012241E600201FF04EF9C0EB00105030A0
:103D2800CE4B83FB0023C217C2EBA31212B233E6B9
:103D380000201FF040F9C0EB001040005030C74B86
:103D480083FB0023C217C2EBA31212B224E60020A1
:103D58001FF031F9C0EB0010EF2801DC012232E638
:103D680000201FF028F9C0EB00105030BB4B83FB3C
:103D78000023C217C2EBA31212B224E600201FF0E0
:103D88001AF9C0EB001040005030B44B83FB0023FD
:103D9800C217C2EBA31212B215E600201FF00BF9EE
:103DA800C0EB0010EF2801DC012229E600201FF0FB
:103DB80002F9C0EB00105030A84B83FB0023C21758
:103DC800C2EBA31212B21BE600201FF0F4F8C0EBFE
:103DD800001040005030A14B83FB0023C217C2EBF8
:103DE800A31212B20CE600201FF0E5F8C0EB001099
:103DF800EF2801DC01221AE600201FF0DCF8C0EBF6
:103E080000105030954B83FB0023C217C2EBA3125E
:103E180012B20CE600201FF0CEF8C0EB00104000F4
:103E280050308E4B83FB0023C217C2EBA31212B291
:103E3800FDE58B4B1A8811E61D234FF0000263F352
:103E480004023B2161F34A1263F3CF2222E60020E9
:103E58001FF0B1F8C0EB0010EF2801DC012230E6BA
:103E680000201FF0A8F8C0EB001050307B4B83FBFC
:103E78000023C217C2EBA31212B222E600201FF0E1
:103E88009AF8C0EB001040005030744B83FB0023BD
:103E9800C217C2EBA31212B213E600201FF08BF870
:103EA800C0EB0010EF2801DC012221E600201FF002
:103EB80082F8C0EB00105030684B83FB0023C21718
:103EC800C2EBA31212B213E600201FF074F8C0EB85
:103ED800001040005030614B83FB0023C217C2EB37
:103EE800A31212B204E600201FF065F8C0EB001020
:103EF800EF2801DC012212E600201FF05CF8C0EB7D
:103F080000105030554B83FB0023C217C2EBA3129D
:103F180012B204E600201FF04EF8C0EB001040007B
:103F280050304E4B83FB0023C217C2EBA31212B2D0
:103F3800F5E500201FF03FF81430484B83FB0023C1
:103F4800C217C2EB231212B2FBE5454B1A8810E6E2
:103F5800662224E6424B1A8855E600201FF02BF80B
:103F680000EB400050303D4B83FB0023C217C2EBEF
:103F7800A31212B273E600201FF01DF8C0EB001068
:103F8800EF2801DC012281E600201FF014F8C0EBC5
:103F980000105030314B83FB0023C217C2EBA31231
:103FA80012B273E600201FF006F8C0EB00104000C4
:103FB80050302A4B83FB0023C217C2EBA31212B264
:103FC80064E600201EF0F7FFC0EB0010EF2801DCCC
:103FD800012272E600201EF0EEFFC0EB0010503008
:103FE8001E4B83FB0023C217C2EBA31212B264E676
:103FF80000201EF0E0FFC0EB001040005030174BCF
:1040080083FB0023C217C2EBA31212B255E60020AD
:104018001EF0D1FFC0EB0010EF2801DC01226BE697
:1040280000201EF0C8FFC0EB001050300B4B83FB84
:104038000023C217C2EBA31212B25DE600201EF0E5
:10404800BAFFC0EB001040005030044B83FB002344
:10405800C217C2EBA31212B24EE600BF67666666CD
:10406800BC59030838B5964C20683C30FEF7B4FCC0
:1040780024683C3400201EF09EFFC0EB0010400076
:10408800EF2800F3B2800122C02120461DF034FF42
:104098008B4C2068FF222C213C301EF0A9F82068A8
:1040A8003C30884B1B6A13F0020F00F0AD804FF0D4
:1040B80000021E2363F304023B2363F34A121D2309
:1040C80063F3CF2229211DF0D5FF7D4B1C683C34BA
:1040D80000201EF070FF00EB80008000EF2800F346
:1040E8009F800122142120461DF006FF744C206891
:1040F80047F6FF7201213C301DF0FEFE206840307B
:10410800FEF76AFC206847F6FF72012140301DF077
:10411800F3FE20686C4D2A88292140301DF0AAFF43
:104128002068FF222C2140301EF062F8206802220D
:10413800302140301DF0E0FE2068AA883921403047
:104148001DF098FF20685F4DAA8940F23921403060
:104158001DF090FF2068EA8940F2394140301DF097
:1041680089FF2468403400201EF025FF00EB40033F
:1041780000EB8300EF2862DC0122122120461DF0AB
:10418800BBFE4F4B1C68403400201EF014FF00EBB0
:10419800400300EB8300EF2861DC01221321204655
:1041A8001DF0AAFE464B1C68403400201EF003FF99
:1041B80000EB400300EB8300EF2860DC01221021B4
:1041C80020461DF099FE3E4B1C68403400201EF02E
:1041D800F2FE00EB400300EB8300EF285FDC0122D6
:1041E800112120461DF088FE38BD00201EF0E3FE98
:1041F800C0EB001040005030344B83FB0023C21743
:10420800C2EBA31212B23FE74FF000020B2363F395
:104218000402122363F34A12082363F3CF2251E7FF
:1042280000201EF0C8FE00EB800080005030274BB5
:1042380083FB0023C217C2EBA31212B252E700207D
:104248001EF0B9FE00EB400200EB820050301F4B1D
:1042580083FB0023C217C2EBA31212B28DE7002022
:104268001EF0A9FE00EB400200EB82005030174B15
:1042780083FB0023C217C2EBA31212B28EE7002001
:104288001EF099FE00EB400200EB820050300F4B0D
:1042980083FB0023C217C2EBA31212B28FE70020E0
:1042A8001EF089FE00EB400200EB82005030074B05
:1042B80083FB0023C217C2EBA31212B290E700BF20
:1042C8006C55002070550020BC5903086766666667
:1042D80038B5B14C20685030FEF77EFB2468503466
:1042E80000201EF068FE3B2800F3D4800122012143
:1042F80020461DF001FEA84B1C68503400201EF01B
:104308005AFE00EB80004300EF2B00F3CF80012220
:10431800142120461DF0F0FD9F4C20689F4DAA896E
:10432800492150301DF0A6FE206800224C21503053
:104338001DF05EFF20687F224FF4137150301DF08E
:1043480057FF246850342B6A13F0200F00F0BD800B
:104358000022402120461DF0CFFD8F4B1C685034B1
:1043680000201EF028FE00EB80004300EF2B00F336
:10437800BF800122412120461DF0BEFD864C2068E9
:104388000022B02150301DF0B7FD20684C22B72123
:1043980050301DF0B1FD20685430FEF71DFB206839
:1043A80000224FF4137154301DF022FF2468543456
:1043B80000201EF000FE3B2800F3A9800122012105
:1043C80020461DF099FD744C2068754A4FF4B7716A
:1043D80054301DF0CDFF2068724B1A8840F26911E5
:1043E80054301DF047FE206800226C2154301DF027
:1043F800FFFE2068FF224FF4B67154301DF0F8FE1E
:1044080020686C22B42154301DF076FD2068634B7F
:104418001A6948F28E1154301DF0AAFF24685434EA
:1044280000201EF0C8FD00EB4000EF287BDC0122D5
:10443800122120461DF060FD574B1C6854340020A3
:104448001EF0B9FD00EB4000EF287ADC01221321B1
:1044580020461DF051FD504B1C68543400201EF0BE
:10446800AAFD00EB4000EF2879DC0122102120464C
:104478001DF042FD484B1C68543400201EF09BFD83
:1044880000EB4000EF2878DC0122112120461DF0C6
:1044980033FD38BD00201EF08EFD1430424B83FBE7
:1044A8000023C217C2EB231212B220E700201EF02D
:1044B80082FD00EB8000420050323B4B83FB02132D
:1044C800D217C2EBA31212B222E700201EF073FD2E
:1044D800772801DC01223CE700201EF06CFD283023
:1044E800314B83FB0023C217C2EB631212B230E7D1
:1044F80000201EF060FD00EB8000420050322A4B85
:1045080083FB0213D217C2EBA31212B232E70020C8
:104518001EF051FD1430244B83FB0023C217C2EB5D
:10452800231212B24BE700201EF045FD00EB4000BD
:1045380050301D4B83FB0023C217C2EBA31212B2EB
:1045480076E700201EF037FD00EB40005030164B98
:1045580083FB0023C217C2EBA31212B277E7002035
:104568001EF029FD00EB400050300F4B83FB002369
:10457800C217C2EBA31212B278E700201EF01BFD8F
:1045880000EB40005030084B83FB0023C217C2EBFE
:10459800A31212B279E700BF6C55002070550020B5
:1045A800045C0308BC5903086766666610B56E4C60
:1045B80020686C30FEF710FA2068002201216C3068
:1045C8001DF09AFC24686C3400201EF0F4FC3B2893
:1045D80074DC0122302120461DF08EFC624C2068DC
:1045E800022231216C301DF087FC20686C305F4B53
:1045F8001B6A13F0020F6DD04FF00002082363F31B
:1046080004020F2363F34A12072363F3CF223921ED
:104618001DF030FD544C2068544BDA8940F2394182
:104628006C301DF027FD24686C3400201EF0C3FC9C
:1046380000EB8000EF2850DC0122122120461DF0FB
:104648005BFC494B1C686C3400201EF0B4FC00EB8A
:104658008000EF284FDC0122132120461DF04CFC7E
:10466800414B1C686C3400201EF0A5FC00EB800058
:10467800EF284EDC0122102120461DF03DFC3A4B6C
:104688001C686C3400201EF096FC00EB8000EF28BC
:104698004DDC0122112120461DF02EFC324B1C68F6
:1046A8006C3400201EF087FC00EB4000EF284CDC47
:1046B8000122142120461DF01FFC10BD00201EF011
:1046C8007AFC14302A4B83FB0023C217C2EB231257
:1046D80012B27FE74FF0000299E700201EF06BFC52
:1046E80000EB80005030224B83FB0023C217C2EB43
:1046F800A31212B2A1E700201EF05DFC00EB8000BF
:1047080050301B4B83FB0023C217C2EBA31212B21B
:10471800A2E700201EF04FFC00EB80005030144B45
:1047280083FB0023C217C2EBA31212B2A3E7002037
:104738001EF041FC00EB800050300D4B83FB002342
:10474800C217C2EBA31212B2A4E700201EF033FC7A
:1047580000EB40005030064B83FB0023C217C2EB2E
:10476800A31212B2A5E700BF6C55002070550020B7
:104778006766666610B51E4C20688030FEF72CF917
:104788002468803400201EF016FC322303FB00F05E
:10479800EF2812DC0122502120461DF0ADFB144BFE
:1047A80018688030134B1B6A13F0020F14D0124B99
:1047B8001A8959211DF05EFC10BD00201EF0FBFB7C
:1047C800322202FB00F050300C4B83FB0023C2174F
:1047D800C2EBA31212B2DEE713234FF0000263F319
:1047E8000402262161F34A1263F3CF22E1E700BFF6
:1047F8006C55002070550020BC5903086766666632
:1048080010B5524C20688430FEF7E6F82068FF2285
:104818002C2184301DF0ECFC206884304C4B1B6A42
:1048280013F0020F5CD04FF000021A2363F3040266
:10483800332363F34A12192363F3CF2229211DF08E
:1048480019FC424C206847F6FF72012184301DF0A4
:1048580053FB2468843400201EF0ADFBC0EBC0007D
:10486800EF2849DC0122032120461DF045FB374B88
:104878001C68843400201EF09EFBC0EBC000EF28AB
:1048880048DC0122132120461DF036FB2F4B1C6803
:10489800843400201EF08FFBC0EBC000EF2847DCFB
:1048A8000122112120461DF027FB284C2068883062
:1048B800FEF792F82068FF222C2188301DF098FC22
:1048C800206811234FF0000263F30402222161F3F0
:1048D8004A1263F3CF22292188301DF0CBFB10BD8B
:1048E8004FF00002102363F304021F2363F34A12FC
:1048F8000E2363F3CF22A1E700201EF05CFBC0EB80
:10490800C0005030134B83FB0023C217C2EBA31225
:1049180012B2A8E700201EF04EFBC0EBC0005030DA
:104928000C4B83FB0023C217C2EBA31212B2A9E7F8
:1049380000201EF040FBC0EBC0005030054B83FB4D
:104948000023C217C2EBA31212B2AAE76C550020CB
:10495800705500206766666610B5424C2068B8300E
:10496800FEF73AF82068B8303F4B1B6A13F0020F85
:1049780048D04FF00002092363F30402102363F3C5
:104988004A12062363F3CF2239211DF073FB354BFE
:104998001C68B83400201EF00EFB77283EDC01228C
:1049A800302120461DF0A8FA2E4B1C68B834002090
:1049B8001EF001FBEF283DDC0122122120461DF0EC
:1049C8009BFA284C206804223121B8301DF094FA53
:1049D8002068BC30FEF700F82068BC30224B1B6A08
:1049E80013F0020F32D015234FF0000263F30402D4
:1049F8002A2161F34A1263F3CF2248F289011DF09C
:104A080039FB10BD4FF00002152363F304022A237B
:104A180063F34A12142363F3CF22B5E700201EF094
:104A2800CAFA2830114B83FB0023C217C2EB63126A
:104A380012B2B5E700201EF0BEFA50300B4B83FBD4
:104A48000023C217C2EBA31212B2B6E74FF000025E
:104A5800172363F304022B2363F34A12142363F32B
:104A6800CF22CAE76C55002070550020676666663D
:104A780010B52C4C20689C30FDF7AEFF2068FF2253
:104A88002C219C301DF0B4FB2068274B9A892921E2
:104A98009C301DF0EFFA2068244B1A8848F28901EF
:104AA8009C301DF0E7FA24689C3400201EF083FA3D
:104AB800642303FB00F0EF2815DC012210212046B7
:104AC8001DF01AFA174B1C689C3400201EF073FA6C
:104AD800642303FB00F0EF2814DC01221121204697
:104AE8001DF00AFA10BD00201EF065FA642202FBD0
:104AF80000F050300E4B83FB0023C217C2EBA31209
:104B080012B2DBE700201EF056FA642202FB00F026
:104B18005030074B83FB0023C217C2EBA31212B21B
:104B2800DCE700BF6C55002070550020BC59030815
:104B38006766666670B5D54C20687830FDF74CFF1F
:104B480020680122022178301DF0D6F92068002261
:104B5800122178301DF0D0F9206800221321783016
:104B68001DF0CAF920680022102178301DF0C4F920
:104B780020680022112178301DF0BEF9206800223B
:104B8800142178301DF0B8F920687C30FDF724FF37
:104B98002068FF222C217C301DF02AFB20687C3005
:104BA800BB4B1B6A13F0020F00F0EE814FF0FF328F
:104BB80029211DF05FFAB54B18687C30B44B1B6A8D
:104BC80013F0020F00F0EC811D234FF0000263F395
:104BD80004023B2161F34A1263F3CF2241F2290117
:104BE8001DF048FAA94B18687C30A94B1B6A13F0D2
:104BF800020F00F0E1814FF0FF3242F229011DF06F
:104C080039FAA24D2868A24CA28940F229117C30B9
:104C18001DF030FA2E687C363321A08920F0FCF98B
:104C2800024641F2291130461DF024FA28687C30EA
:104C3800236A13F0020F00F0CB814FF00002082323
:104C480063F304020F2363F34A12072363F3CF22AB
:104C580048F289011DF00EFA8C4B18687C308C4B99
:104C68001B6A13F0020F00F0B6814FF0FF3248F2D2
:104C780089111DF0FFF9854B18687C30844B1B6A3D
:104C880013F0020F00F0AA8115234FF0000263F31E
:104C980004022A2161F34A1263F3CF224AF28901FE
:104CA8001DF0E8F9794B18687C30794B1B6A13F0D2
:104CB800020F00F09E814FF00002082363F3040204
:104CC8000F2363F34A12072363F3CF2248F2A901A3
:104CD8001DF0D0F96D4B18687C306D4B1B6A13F0D2
:104CE800020F00F089814FF0FF3248F2A9111DF040
:104CF800C1F9664B18687C30654B1B6A13F0020FCC
:104D080000F07D8115234FF0000263F304022A218D
:104D180061F34A1263F3CF224AF2A9011DF0AAF9FE
:104D28005A4C2068012231217C301DF0E5F82068BA
:104D38007C30574B1B6A13F0020F00F06B814FF069
:104D480000021C2363F30402372363F34A121A2375
:104D580063F3CF2239211DF08DF94C4C20684C4D5E
:104D6800AA8940F239217C301DF084F9206801229B
:104D780030217C301DF0C0F82068EA8940F24921D2
:104D88007C301DF077F924687C342B6A13F0200FEF
:104D980000F04C8100224FF4107120461DF0ACF851
:104DA8003A4B1C687C3400201EF005F9772800F384
:104DB80050814FF0FF3240F2412120461DF09CF80F
:104DC800324B1C687C3400201EF003F9012840F2A5
:104DD8004C8100201EF0EFF8C0EB00104000EF28D7
:104DE80000F35A810122122120461DF085F8274B35
:104DF8001C687C3400201EF0ECF8012840F25B812E
:104E080000201EF0D8F8C0EB00104000EF2800F397
:104E180069810122132120461DF06EF81B4B1C6886
:104E28007C3400201EF0D5F8012840F26A81002069
:104E38001EF0C1F8C0EB00104000EF2800F37881A5
:104E48000122102120461DF057F8104B1C687C34B5
:104E580000201EF0BEF8012840F2798100201EF0E3
:104E6800AAF8C0EB00104000EF2800F38781012268
:104E7800112120461DF040F8044B1C687C340020AA
:104E88001EF0A7F8012840F2888103E06C55002045
:104E98007055002000201EF08EF8C0EB0010400076
:104EA800EF2800F391810122142120461DF024F8F7
:104EB800D24B1C687C3400201EF08BF8012840F28D
:104EC800928100201EF077F8C0EB00104000EF2818
:104ED80000F3A6814FF0FF32042120461DF00CF8A4
:104EE800C64B1C687C3400201EF065F8772800F358
:104EF800A6814FF0FF3241F2040120461CF0FCFF6E
:104F0800BE4B1C687C3400201EF055F8772800F34F
:104F1800A2814FF0FF324FF4827120461CF0ECFF63
:104F2800B64B1C687C3400201EF045F8772800F347
:104F38009E814FF0FF3242F2040120461CF0DCFF54
:104F4800AE4B1C687C3400201EF035F8772800F33F
:104F58009A814FF0FF324FF4017120461CF0CCFFCC
:104F6800A64C20680022B0217C301CF0C5FF2068C8
:104F78002922B7217C301CF0BFFF20680422B6210B
:104F88007C301CF0B9FF70BD4FF000020E2363F3B4
:104F98000402182363F34A120B2363F3CF2207E6B4
:104FA8004FF000020A2363F30402132363F34A1247
:104FB800092363F3CF2211E64FF000020E2363F3B7
:104FC8000402182363F34A120B2363F3CF2214E677
:104FD8004FF0FF323CE64FF0FF3248E613234FF024
:104FE800000263F30402262161F34A1263F3CF221D
:104FF80054E64FF0FF3269E64FF0FF3275E61323AF
:105008004FF0000263F30402262161F34A1263F3AE
:10501800CF2281E64FF00002122363F30402222319
:1050280063F34A12102363F3CF2293E600201DF0A6
:10503800C2FF772801DC0122ADE600201DF0BBFF8E
:1050480028306F4B83FB0023C217C2EB631212B2E6
:10505800A1E600201DF0AFFF2830694B83FB002339
:10506800C217A2EB631212B2A5E600201DF0A3FF3F
:10507800C0EB0010EF2801DC0122B4E600201DF08F
:105088009AFFC0EB001050305D4B83FB0023C21722
:10509800C2EBA31212B2A6E600201DF08CFFC0EBF3
:1050A800001040005030564B83FB0023C217C2EB60
:1050B800A31212B297E600201DF07DFFC0EB00108E
:1050C800EF2801DC0122A5E600201DF074FFC0EBEB
:1050D800001050304A4B83FB0023C217C2EBA312C7
:1050E80012B297E600201DF066FFC0EB00104000EA
:1050F8005030434B83FB0023C217C2EBA31212B2FA
:1051080088E600201DF057FFC0EB0010EF2801DCF7
:10511800012296E600201DF04EFFC0EB0010503033
:10512800374B83FB0023C217C2EBA31212B288E6E7
:1051380000201DF040FFC0EB001040005030304B05
:1051480083FB0023C217C2EBA31212B279E6002038
:105158001DF031FFC0EB0010EF2801DC012287E6CB
:1051680000201DF028FFC0EB00105030244B83FBBB
:105178000023C217C2EBA31212B279E600201DF079
:105188001AFFC0EB0010400050301D4B83FB00237A
:10519800C217C2EBA31212B26AE600201DF00BFF81
:1051A800C0EB0010EF2801DC01227DE600201DF095
:1051B80002FFC0EB00105030114B83FB0023C217D5
:1051C800C2EBA31212B26FE600201DF0F4FEC0EB92
:1051D8000010400050300A4B83FB0023C217C2EB7B
:1051E800A31212B260E600201DF0E5FEC0EB00102D
:1051F800EF2807DC4FF0FF326EE600BF6C55002049
:105208006766666600201DF0D6FEC0EB00105030C1
:10521800234B83FB0023C217A2EBA31212B25BE657
:1052280000201DF0C8FEC0EB0010400050301C4BA1
:1052380083FB0023C217A2EBA31212B24CE6002094
:105248001DF0B9FE2830164B83FB0023C217A2EBD2
:10525800631212B24FE600201DF0ADFE2830104B4D
:1052680083FB0023C217A2EB631212B253E600209D
:105278001DF0A1FE28300A4B83FB0023C217A2EBC6
:10528800631212B257E600201DF095FE2830044B39
:1052980083FB0023C217A2EB631212B25BE600BFC6
:1052A8006766666638B5444C20685830FDF794FB4D
:1052B8002468583400201DF07EFE00EB800080003A
:1052C800EF2857DC012248F2810120461CF014FE29
:1052D800394C20680122022158301CF00DFE20684C
:1052E8005C30FDF779FB2068FF222C215C301CF034
:1052F8007FFF2068314DAA8929215C301CF0BAFE55
:1053080020685C302B6A13F0020F42D04FF0FF3256
:1053180048F289011CF0AEFE274B18685C30274B19
:105328001B6A13F0020F37D01D234FF0000263F3FE
:1053380004023B2161F34A1263F3CF2241F22901AF
:105348001CF098FE1C4B18685C301C4B1B6A13F051
:10535800020F2DD04FF00002082363F304020F233D
:1053680063F34A12072363F3CF2249F289011CF041
:1053780081FE38BD00201DF01EFE00EB800080007D
:1053880050300F4B83FB0023C217C2EBA31212B29B
:1053980099E74FF0FF32BBE74FF000020A2363F3AF
:1053A8000402132363F34A12092363F3CF22C5E7E8
:1053B8004FF0FF32D9E700BF6C5500207055002030
:1053C8006766666610B5204C20688C30FDF704FBD4
:1053D80024688C3400201DF0EEFD00EB800000EB0B
:1053E8008000EF2820DC012248F2810120461CF0D1
:1053F80083FD154C20689030FDF7EEFA2068FF22F7
:105408002C2190301CF0F4FE2068104B9A89292139
:1054180090301CF02FFE20680D4B1A8848F2890145
:1054280090301CF027FE10BD00201DF0C4FD00EBDD
:10543800800000EB80005030064B83FB0023C2172E
:10544800C2EBA31212B2CFE76C55002070550020B2
:10545800BC5903086766666610B5914C2068A4308D
:10546800FDF7BAFA2068A4308E4B1B6A13F0020FBE
:1054780071D04FF000021C2363F30402372363F357
:105488004A121A2363F3CF2239211CF0F3FD844C0E
:10549800206801223021A4301CF02EFD2068032250
:1054A8003121A4301CF028FD2468A43400201DF00C
:1054B80090FD01285BD900201DF07DFDC0EB001098
:1054C8004000EF286ADC0122122120461CF014FD5E
:1054D800734B1C68A43400201DF07BFD01286CD997
:1054E80000201DF068FDC0EB00104000EF287BDCB9
:1054F8000122132120461CF0FFFC694B1C68A434D0
:1055080000201DF066FD01287DD900201DF053FD07
:10551800C0EB00104000EF2800F38C80012210211E
:1055280020461CF0E9FC5E4B1C68A43400201DF0EA
:1055380050FD012840F28D8000201DF03CFDC0EB9D
:1055480000104000EF2800F39B8001221121204623
:105558001CF0D2FC10BD4FF00002122363F30402CA
:10556800222363F34A12102363F3CF228CE700202F
:105578001DF021FDC0EB0010EF2801DC0122A3E79C
:1055880000201DF018FDC0EB00105030464B83FB87
:105598000023C217C2EBA31212B295E700201DF038
:1055A8000AFDC0EB0010400050303F4B83FB002346
:1055B800C217C2EBA31212B286E700201DF0FBFC53
:1055C800C0EB0010EF2801DC012292E700201DF05B
:1055D800F2FCC0EB00105030334B83FB0023C217A2
:1055E800C2EBA31212B284E700201DF0E4FCC0EB6A
:1055F8000010400050302C4B83FB0023C217C2EB35
:10560800A31212B275E700201DF0D5FCC0EB001004
:10561800EF2801DC012282E700201DF0CCFCC0EB62
:1056280000105030204B83FB0023C217C2EBA3129B
:1056380012B274E700201DF0BEFCC0EB0010400061
:105648005030194B83FB0023C217C2EBA31212B2CE
:1056580065E700201DF0AFFCC0EB0010EF2801DC6F
:10566800012273E700201DF0A6FCC0EB00105030AB
:105678000D4B83FB0023C217C2EBA31212B265E7DE
:1056880000201DF098FCC0EB001040005030064B85
:1056980083FB0023C217C2EBA31212B256E700BF66
:1056A8006C550020705500206766666638B5D74C83
:1056B8002068AC30FDF790F92068FF222C21AC302F
:1056C8001CF096FD2068AC30D14B1B6A13F0020F1A
:1056D80000F068814FF0FF3229211CF0CBFCCB4B46
:1056E8001868AC30CA4B1B6A13F0020F00F06681D1
:1056F8004FF00002082363F304020F2363F34A12F6
:10570800072363F3CF2248F289011CF0B3FCBF4C96
:1057180020684FF00002132363F30402262363F387
:105728004A12122363F3CF2248F2A901AC301CF0CD
:10573800A1FC2468AC3400201DF03DFCC0EBC00087
:10574800EF2800F347810122102120461CF0D4FBEA
:10575800AE4B1C68AC3400201DF02DFCC0EBC00023
:10576800EF2800F345810122122120461CF0C4FBDA
:10577800A64B1C68AC3400201DF01DFCC0EBC0001B
:10578800EF2800F349810122132120461CF0B4FBC5
:105798009E4C2068A830FDF71FF920687F2241F24F
:1057A8002C01A8301CF024FD206811234FF00002C2
:1057B80063F30402222161F34A1263F3CF2241F218
:1057C8002901A8301CF056FC2068A830904B1B6AB1
:1057D80013F0020F00F02E814FF00002082363F34C
:1057E80004020F2363F34A12072363F3CF2248F21C
:1057F80089111CF03FFC854B1C68A83400201DF063
:10580800DAFB00EB80008000EF2800F31F81012203
:10581800102120461CF070FB7C4B1C68A83400202B
:105828001DF0C9FB00EB80008000EF2800F31D810C
:105838000122112120461CF05FFB744C2068744D36
:10584800AA8948F28921A8301CF014FC2068EA894A
:1058580048F28941A8301CF00DFC2068B030FDF7F3
:10586800BBF82068FF222C21B0301CF0C1FC206856
:10587800AA892921B0301CF0FDFB2068EA8940F292
:105888002941B0301CF0F6FB2468B03400201DF02C
:1058980092FB00EB8000EF2800F3F6800122032141
:1058A80020461CF029FB594C206847F6FF7201215D
:1058B800B0301CF021FB2068B430FDF78DF8246867
:1058C800B43400201DF085FB012840F2EB80002055
:1058D8001DF071FBC0EB00104000EF2800F3F980C9
:1058E8000122102120461CF007FB484B1C68B434E9
:1058F80000201DF06EFB012840F2FA8000201DF008
:105908005AFBC0EB00104000EF2800F30881012289
:10591800112120461CF0F0FA3C4B1C68B4340020DE
:105928001DF057FB012840F2098100201DF043FBC0
:10593800C0EB00104000EF2800F31781012212216C
:1059480020461CF0D9FA314B1C68B43400201DF0F5
:1059580040FB012840F2188100201DF02CFBC0EB11
:1059680000104000EF2800F3268101221321204671
:105978001CF0C2FA254B1C68B43400201DF029FB2A
:10598800012840F2278100201DF015FBC0EB001014
:105998004000EF2800F335810122142120461CF035
:1059A800ABFA38BD4FF000020E2363F3040218234C
:1059B80063F34A120B2363F3CF228DE64FF0000204
:1059C8001D2363F304023A2363F34A121C2363F38F
:1059D800CF2298E600201DF0EEFAC0EBC000503050
:1059E8000C4B83FB0023C217C2EBA31212B2ABE627
:1059F80000201DF0E0FAC0EBC0005030054B83FBDF
:105A08000023C217C2EBA31212B2ADE66C550020F8
:105A1800705500206766666600201DF0CCFAC0EB62
:105A2800C00050307E4B83FB0023C217C2EBA31289
:105A380012B2A9E64FF000021D2363F304023A23D1
:105A480063F34A121C2363F3CF22D0E600201DF033
:105A5800B2FA00EB800080005030714B83FB0023CA
:105A6800C217C2EBA31212B2D2E600201DF0A3FAAD
:105A780000EB800080005030694B83FB0023C21785
:105A8800C2EBA31212B2D4E600201DF094FA00EB88
:105A980080005030624B83FB0023C217C2EBA31275
:105AA80012B2FCE600201DF086FAC0EB0010EF28C9
:105AB80001DC012215E700201DF07DFAC0EB001083
:105AC8005030574B83FB0023C217C2EBA31212B20C
